:100000000C94E2000C940A010C940A010C9459100F
:100010000C9459100C9459100C940A010C940A0178
:100020000C940A010C940A010C940A010C940A0124
:100030000C940A010C940A010C940A010C940A0114
:100040000C94E7070C940A010C94F1060C94290710
:100050000C940A010C940A010C940A010C940A01F4
:100060000C940A010C940A0100000008000201002F
:100070000003040700000000000000000102040863
:100080001020408001020408102001020408102002
:10009000040404040404040402020202020203032E
:1000A00003030303000000002300260029000000D2
:1000B0000000250028002B0000000000240027007D
:1000C0002A0000407A10F35A00A0724E180900105E
:1000D000A5D4E80000E87648170000E40B540200BD
:1000E00000CA9A3B000000E1F505000080969800E8
:1000F000000040420F000000A08601000000102711
:1001000000000000E80300000000640000000000A0
:100110000A00000000000100000000002C76D888D2
:10012000DC674F0823DFC1DFAE59E1B1B796E5E3E5
:10013000E453C63AE651997696E8E6C28426EB89FE
:100140008C9B62ED407C6FFCEFBC9C9F40F2BAA59B
:100150006FA5F490055A2AF75C936B6CF9676DC133
:100160001BFCE0E40D47FEF520E6B500D0ED902E37
:100170000300943577050080841E080000204E0A95
:10018000000000C80C333333330F986E12831141D3
:10019000EF8D2114893BE65516CFFEE6DB18D1849E
:1001A0004B381BF77C1D901DA4BBE42420328472C5
:1001B0005E228100C9F124ECA1E53D275D045907C9
:1001C000540D690411241FBECFEFD8E0DEBFCDBFB0
:1001D00012E0A0E0B1E0ECEAFAE302C005900D9273
:1001E000A830B107D9F725E0A8E0B2E001C01D9220
:1001F000AB37B207E1F710E0C1EED0E004C02197C1
:10020000FE010E940513CE3DD107C9F70E94E50407
:100210000C94491D0C9400004F925F926F927F9254
:100220008F929F92AF92BF92CF92DF92EF92FF9206
:100230000F931F93CF93DF9300D000D0CDB7DEB7DD
:1002400029013A019B01AC01C801B7010E940B13BF
:1002500069837A838B839C83A3019201C601B501D4
:100260000E940B136B017C0129813A814B815C81D7
:10027000CA01B9010E9486144B015C01A7019601D5
:10028000C701B6010E9486149B01AC01C501B401EF
:100290000E940C130E94F91420E030E048EC52E474
:1002A0000E9486142DEC3CE04DE455E40E94861437
:1002B0000F900F900F900F90DF91CF911F910F91A2
:1002C000FF90EF90DF90CF90BF90AF909F908F9076
:1002D0007F906F905F904F9008954F925F926F92D2
:1002E0007F928F929F92AF92BF92CF92DF92EF92C6
:1002F000FF920F931F93CF93DF93CDB7DEB72A976B
:100300000FB6F894DEBF0FBECDBF2CE230E03A83CB
:100310002983BE016F5F7F4F0E94A717BE016F5FE9
:100320007F4F80E090E00E94A717BE016F5F7F4F74
:1003300080E090E00E94A717BE016F5F7F4F80E0D2
:1003400090E00E94A7178C01FC01608170E060536F
:100350007109072E000C880B990B0E94EC1320E00A
:1003600030E040E251E40E9486146B837C838D83ED
:100370009E83F801628170E060537109072E000CC2
:10038000880B990B0E94EC1320E030E040E251E42E
:100390000E9486146B017C01F801658170E0605356
:1003A0007109072E000C880B990B0E94EC1320E0BA
:1003B00030E040E251E40E9486144B015C01F801F8
:1003C000668170E060537109072E000C880B990B51
:1003D0000E94EC139B01AC01C501B4010E940C13F7
:1003E0004B015C01F801678170E060537109072ED1
:1003F000000C880B990B0E94EC1320E030E040E2E7
:1004000051E40E9486142B013C0120E030E048ECCE
:1004100052E4C501B4010E9486144B015C01F8014D
:10042000608570E060537109072E000C880B990BF2
:100430000E94EC139B01AC01C301B2010E940C139A
:100440009B01AC01C501B4010E940C134B015C017E
:10045000F801638170E060537109072E000C880B6E
:10046000990B0E94EC139B01AC01C701B6010E94DD
:100470000C136B017C0127E137EB41ED58E3C5011B
:10048000B4010E9486149B01AC01C701B6010E9411
:100490000C1320E030E040E752E40E9478136B0137
:1004A0007C01F801818190E0C097BC01990F880B15
:1004B000990B0E94EC139B01AC016B817C818D81B7
:1004C0009E810E940C139B01AC01C701B6010E94E2
:1004D0000C136093060470930704809308049093B0
:1004E0000904BE016F5F7F4F80E090E00E94A71774
:1004F0009093FD038093FC03E091FA03F091FB03DA
:1005000080818F7D833589F4809106049091070462
:10051000A0910804B0910904B05880930604909308
:100520000704A0930804B0930904BE016F5F7F4FD6
:1005300080E090E00E94A7178C01FC01608170E0D0
:1005400060537109072E000C880B990B0E94EC1365
:100550006B837C838D839E83F801618170E060539F
:100560007109072E000C880B990B0E94EC1320E0F8
:1005700030E040E251E40E9486146B017C01F801F6
:10058000828190E0C097BC01990F880B990B0E9463
:10059000EC139B01AC01C701B6010E940C136F83E1
:1005A000788789879A87F801638170E060537109C1
:1005B000072E000C880B990B0E94EC1320E030E012
:1005C00040E251E40E9486146B017C01F8016681CF
:1005D00070E060537109072E000C880B990B0E9484
:1005E000EC1320E030E040E251E40E9486144B011D
:1005F0005C01F801678170E060537109072E000CFF
:10060000880B990B0E94EC139B01AC01C501B4014E
:100610000E940C134B015C01F801608570E060538F
:100620007109072E000C880B990B0E94EC1320E037
:1006300030E040E251E40E9486142B013C0120E0AE
:1006400030E048EC52E4C501B4010E9486144B012D
:100650005C01F801618570E060537109072E000CA0
:10066000880B990B0E94EC139B01AC01C301B201F2
:100670000E940C139B01AC01C501B4010E940C1334
:100680004B015C01F801648170E060537109072E31
:10069000000C880B990B0E94EC139B01AC01C70165
:1006A000B6010E940C136B017C0127E137EB41ED91
:1006B00058E3C501B4010E9486149B01AC01C70137
:1006C000B6010E940C1320E030E040E752E40E94A3
:1006D00078136B017C0120E030E048EC52E46B8140
:1006E0007C818D819E810E9486149B01AC016F816B
:1006F000788589859A850E940C139B01AC01C701FE
:10070000B6010E940C13609302047093030480935B
:10071000040490930504BE016F5F7F4F80E090E07A
:100720000E94A7179093FB038093FA03FC0180813A
:100730008F7D873589F48091020490910304A09104
:100740000404B0910504B05880930204909303040C
:10075000A0930404B0930504BE016F5F7F4F80E057
:1007600090E00E94A717BE016F5F7F4F80E090E08E
:100770000E94A7178C01FC01608170E06053710931
:10078000072E000C880B990B0E94EC134B015C01A7
:10079000F801618170E060537109072E000C880B2D
:1007A000990B0E94EC132B013C01F801648170E06D
:1007B00060537109072E000C880B990B0E94EC13F3
:1007C0006B017C01F801658170E060537109072EAF
:1007D000000C880B990B0E94EC136B837C838D8338
:1007E0009E8320E030E048EC52E4C501B4010E9451
:1007F00086144B015C0120E030E040E251E4C3018B
:10080000B2010E9486149B01AC01C501B4010E9493
:100810000C134B015C01F801628170E060537109B7
:10082000072E000C880B990B0E94EC139B01AC0166
:10083000C501B4010E940C134B015C012DEC3CEC92
:100840004CEC5DE3C701B6010E9486149B01AC012C
:10085000C501B4010E940C136B017C012AE037ED45
:1008600043E25CE36B817C818D819E810E948614D2
:100870009B01AC01C701B6010E940C136093FE03FB
:100880007093FF0380930004909301042A960FB69F
:10089000F894DEBF0FBECDBFDF91CF911F910F91B6
:1008A000FF90EF90DF90CF90BF90AF909F908F9090
:1008B0007F906F905F904F90089520E047E068E050
:1008C0008BE592E00E9461118AE092E00E947B0E2B
:1008D00008958BE592E00E94071108959F92AF92D0
:1008E000BF92DF92EF92FF920F931F93CF93DF930C
:1008F00080E8EAE7F2E0DF011D928A95E9F78F01CF
:100900000F2EF4E2FF2EF02D99249394E12CD92C94
:10091000AA24A394B12CCE2D01C0C82F8BE592E060
:100920000E94FD0F0196D1F38BE592E00E94560FD5
:10093000EC2FF0E0E658FD4F8083CC2331F0843279
:1009400021F4F801F082CD2DE9CFD8018C918432C9
:1009500029F781E08C0FEC2FF0E0E658FD4F9081F5
:100960009A30D9F690E0FC01E858FD4F1082EC0176
:100970002597FE01E658FD4F20812A3261F640E1BD
:1009800050E060E070E08A589D4F0E948D16C230A2
:10099000D10574F08A2D9B2D292DFC01E658FD4FC1
:1009A000808168272F5F822F90E08C179D07ACF322
:1009B0006111B1CFDF91CF911F910F91FF90EF9017
:1009C000DF90BF90AF909F900895CF93DF93CDB706
:1009D000DEB7E2970FB6F894DEBF0FBECDBF0E9420
:1009E0003D0826E040E052EC61E070E08AE094E0EF
:1009F0000E94880680EB94E00E94A20C40E855E239
:100A000060E070E08BE592E00E948D1166E071E09D
:100A10008BE592E00E94D50767E171E08BE592E0FB
:100A20000E94D50760E371E08BE592E00E94D50754
:100A30003E0185E2680E711C4E0199E1890E911C00
:100A4000DE011D96BAABA9AB0E946E048AE792E064
:100A50000E946D0120900604309007044090080425
:100A60005090090460910204709103048091040481
:100A7000909105040F2EFDE2AF2EF3ECBF2EF4EEA5
:100A8000CF2EF1E4DF2EF02D18E7E12E1CE9F12E38
:100A900002EA12ECA20191010E940C016B017C019F
:100AA000830124E044E0C201B1010E94401560913D
:100AB0000204709103048091040490910504840160
:100AC00024E044E00E9440156091FE037091FF0312
:100AD00080910004909101048E01035F1F4F22E07A
:100AE00043E00E944015BAA9BF9389A98F938091D2
:100AF000FB038F938091FA038F939F928F92809143
:100B0000FD038F938091FC038F937F926F92A2E6F7
:100B1000B1E0BF93AF93AAEFB2E0BF93AF930E944F
:100B2000DE176AEF72E080E192E00E94660D0C50E1
:100B3000110924E044E0C701B6010E944015B80144
:100B400080E192E00E94660D0FB6F894DEBF0FBE02
:100B5000CDBF8FED95E0892B09F476CF0E94DF059C
:100B600073CFFC01918D228D892F90E0805C9F4F87
:100B7000821B91098F7399270895FC01918D828DB5
:100B8000981731F0828DE80FF11D858D90E0089562
:100B90008FEF9FEF0895FC01918D828D981761F082
:100BA000828DDF01A80FB11D5D968C91928D9F5FA4
:100BB0009F73928F90E008958FEF9FEF08958FE4D9
:100BC00097E0892B49F08FE49DE0892B29F00E9462
:100BD0004F0781110E944F0D0895FC01848DDF01A4
:100BE000A80FB11DA35ABF4F8C91248D30E02F5F09
:100BF0003F4F2F733078332334F421503109206C68
:100C00003F6F2F5F3F4F248FA689B7898C93A089B0
:100C1000B1898C9180648C93938D848D981306C0D8
:100C20000288F389E02D80818F7D80830895CF93A2
:100C3000DF93EC01888D81110FC018C00FB607FC3F
:100C40000DC0908195FF0AC0A889B9898C9185FF54
:100C500005C0CE010E94ED05EA89FB89908195FDD2
:100C6000EDCFA889B9898C9186FFE8CFDF91CF912C
:100C700008950F931F93CF93DF93FC0181E0808F42
:100C8000938D848D981322C0A089B1898C9185FDA4
:100C90002FC01CC00FB607FC08C0E889F989808105
:100CA00085FF03C0CE010E94ED059C8D091791F3CD
:100CB0008B8DFE01E80FF11DE35AFF4F10830B8F60
:100CC000EA89FB898081806280831BC0238D30E0AC
:100CD0002F5F3F4F2F733078332334F42150310985
:100CE000206C3F6F2F5F3F4F162FEF01022FDDCF9C
:100CF000A689B7896C930088F189E02D8081806492
:100D0000808381E090E0DF91CF911F910F91089552
:100D1000BF92CF92DF92EF92FF920F931F93CF93E8
:100D2000DF93EC016A017B01B22EE889F98982E048
:100D300080834115514E61057105B1F060E079E0A5
:100D40008DE390E0A70196010E94C41289019A01E7
:100D500001501109210931093695279517950795F5
:100D6000011580E11807A8F0E889F989108260E888
:100D700074E88EE190E0A70196010E94C412DA01A6
:100D8000C9010197A109B109B695A79597958795CE
:100D90008C01EC85FD851083EE85FF850083188E20
:100DA000EC89FD89B082EA89FB898081806180833A
:100DB000EA89FB89808188608083EA89FB89808158
:100DC00080688083EA89FB8980818F7D8083DF91C1
:100DD000CF911F910F91FF90EF90DF90CF90BF9038
:100DE00008951F920F920FB60F9211242F938F9395
:100DF0009F93AF93BF93EF93FF93E0911A04F09109
:100E00001B04808182FD14C0EAE0F4E0A689B78962
:100E10002C91818D8F5F8F73928D891771F0DF0117
:100E2000E18DF0E0E65FFB4F258F59968C9305C06E
:100E3000E0912004F09121048081FF91EF91BF9116
:100E4000AF919F918F912F910F900FBE0F901F9098
:100E500018951F920F920FB60F9211242F933F9364
:100E60004F935F936F937F938F939F93AF93BF93B2
:100E7000EF93FF938AE094E00E94ED05FF91EF91DC
:100E8000BF91AF919F918F917F916F915F914F91A2
:100E90003F912F910F900FBE0F901F9018958AE0F1
:100EA00094E00E94B10521E0892B09F420E0822F13
:100EB0000895EAE0F4E01382128288EE93E0A0E065
:100EC000B0E084839583A683B7838FE891E0918314
:100ED000808385EC90E09587848784EC90E0978709
:100EE000868780EC90E0918B808B81EC90E0938BF7
:100EF000828B82EC90E0958B848B86EC90E0978BD4
:100F0000868B118E128E138E148E0895CF92DF92DF
:100F1000EF92FF920F931F93CF93DF9341155105EB
:100F2000B1F08C01E62EF72EEA01C12CD12CD701AD
:100F30006D917D01D801ED91FC910190F081E02D42
:100F4000C8010995C80ED91E219789F702C0C12C86
:100F5000D12CC601DF91CF911F910F91FF90EF909F
:100F6000DF90CF9008956115710581F0FB0101902C
:100F70000020E9F73197AF01461B570BDC01ED91DB
:100F8000FC910280F381E02D0995089580E090E0C6
:100F90000895DC01ED91FC910280F381E02D42E0A7
:100FA00050E06BE971E0099508950F931F93CF937B
:100FB000DF93EC010E94B3078C01CE010E94C907A8
:100FC000800F911FDF91CF911F910F9108951F9274
:100FD0000F920FB60F9211242F933F938F939F93ED
:100FE000AF93BF938091A8049091A904A091AA0403
:100FF000B091AB043091A70423E0230F2D3720F4E8
:101000000196A11DB11D05C026E8230F0296A11D62
:10101000B11D2093A7048093A8049093A904A093E2
:10102000AA04B093AB048091AC049091AD04A0915C
:10103000AE04B091AF040196A11DB11D8093AC0424
:101040009093AD04A093AE04B093AF04BF91AF9161
:101050009F918F913F912F910F900FBE0F901F90F6
:1010600018952FB7F8946091A8047091A904809105
:10107000AA049091AB042FBF0895789484B5826040
:1010800084BD84B5816084BD85B5826085BD85B52C
:10109000816085BDEEE6F0E0808181608083E1E8DB
:1010A000F0E0108280818260808380818160808313
:1010B000E0E8F0E0808181608083E1EBF0E0808116
:1010C00084608083E0EBF0E0808181608083EAE7E8
:1010D000F0E0808184608083808182608083808171
:1010E000816080838081806880831092C100089530
:1010F000FC017183608316861786108A118A128A12
:10110000138A148A118E158616821782109226056C
:1011100014861086118612861386089526E08AE0CA
:1011200094E00E9488060895E0912C05E93259F078
:1011300021E02E0F20932C05F0E0EE0FFF1FED5263
:10114000FB4F918380830895FC0186850895FC01FF
:1011500080890895DC015796ED91FC915897E60F30
:10116000F11D8081089570E0DC015796ED91FC91AE
:101170005897E60FF71F2081222359F0660F771F3B
:101180005596ED91FC915697E60FF71F808191815E
:10119000089580E090E008950F931F93CF93DF931D
:1011A0008C01DC011C961C921C9716968C9116974C
:1011B0008823A9F11D968C918823F9F0C0E0D0E036
:1011C000D8015596ED91FC9156979E01220F331F41
:1011D000E20FF31F80819181009711F00E94F515B5
:1011E0006CEA71E08AE094E00E94B3072196F8016E
:1011F000258530E0C217D3071CF3D8011D961C9239
:101200001D9755968D919C9156970E94F51560EB10
:1012100071E08AE094E00E94B307F8011682D801D9
:1012200017968C911797882371F057968D919C9102
:1012300058970E94F51564EB71E08AE094E00E94F3
:10124000D507F8011782DF91CF911F910F91089573
:10125000FC018089823051F410868185882319F140
:10126000028CF38DE02D80E009950895813051F4D2
:10127000808781858823B9F0028CF38DE02D81E091
:1012800009950895833079F41F9281E08F931F921E
:101290001F92FF93EF930E94110B0F900F900F90EE
:1012A0000F900F900F9008950F931F93CF93DF939C
:1012B0002091BE04222329F080912C05811104C0C5
:1012C00019C00E94280916C003ED14E0C0E0D0E068
:1012D000D8018D919D918D01DC01ED91FC910190E2
:1012E000F081E02D0995219680912C0590E0C8179A
:1012F000D90774F3DF91CF911F910F910895BF9299
:10130000CF92DF92EF92FF920F931F93CF93DF93D1
:10131000EC018B016F3F8FEF780709F478C19C8552
:10132000911169C16F3F710589F4CE010E94CC080B
:1013300081E08C871E8A1D8A188E1F8A898B68EB34
:1013400071E08AE094E00E94B30761C1898984302A
:1013500009F055C15CC16CEB71E08AE094E00E9439
:10136000B3071B8A1A8A0C8B89898F5F898B4FC1BF
:1013700060EC71E08AE094E00E94B3072C898FEF63
:1013800090E0821B91098017910731F5211103C06C
:1013900089E0898B3CC1822F90E0880F991F0E94C1
:1013A00060159E8B8D8B64EC71E08AE094E00E9466
:1013B000B30711E01E838C8990E00E946015988F1E
:1013C0008F8B68EC71E08AE094E00E94B3071F8382
:1013D00089898F5F898B1BC11C86CE010E94CC0836
:1013E00016C1863099F4992309F411C16CEC71E0AF
:1013F0008AE094E00E94B3078A89EF89F88DE80FAC
:10140000F11D008389898F5F898B01C1873009F0C5
:101410004CC0992309F4FBC060ED71E08AE094E0D0
:101420000E94B3072A8930E0EF89F88DE20FF31F9D
:1014300080814FEF50E0481B51094017510781F55B
:101440008823B1F0220F331F0D891E89020F131F4D
:1014500090E00E946015F8019183808364ED71E053
:101460008AE094E00E94B30789898F5F898B14C05A
:10147000220F331FED89FE89E20FF31F11821082C4
:101480001B8A8A898F5F8A8B9C89891303C089E0B4
:10149000898B02C086E0898B8D858F5F8D87B7C071
:1014A0001C86CE010E94CC08B2C0883099F59923E1
:1014B00009F4ADC068ED71E08AE094E00E94B307E2
:1014C000EA89F0E0EE0FFF1F8D899E89E80FF91F72
:1014D00080819181009741F02B8931E0320F3B8B65
:1014E000FC01E20FF11D00838A89EF89F88DE80F76
:1014F000F11D2B89908129138AC01B8A8F5F8A8BEB
:101500009C89891304C089898F5F898B80C086E09C
:10151000898B7DC0893029F5992309F478C06CED59
:1015200071E08AE094E00E94B307098F011115C0B1
:10153000CE010E9454098A85882359F0ED88FE88DF
:101540000F89188DEC8DFD8D2C8948896F858E85CE
:101550000995CE010E94CC085AC0CE010E94CC0849
:1015600056C0992309F453C0813071F50E870023CA
:10157000F1F18A8581113BC080912C058823F9F017
:101580000F2EF3EDEF2EF4E0FF2EF02D00E010E033
:10159000C12CBB24B394DE84F701819191917F012A
:1015A0000E94B70DD81201C0CB2C0F5F1F4F809146
:1015B0002C0590E00817190774F3C11018C01C8699
:1015C000CE010E94CC0823C0823041F40F8760EE28
:1015D00071E08AE094E00E94B30709C0833039F4D7
:1015E000088B64EE71E08AE094E00E94B307898979
:1015F0008F5F898B0CC08989843029F4ACCE85300B
:1016000009F0EFCE04C0853009F0EBCEB1CEDF910A
:10161000CF911F910F91FF90EF90DF90CF90BF90EF
:1016200008953F924F925F926F927F928F929F9216
:10163000AF92BF92CF92DF92EF92FF920F931F93E0
:10164000CF93DF93CDB7DEB7A0970FB6F894DEBF88
:101650000FBECDBFCCA8DDA83EA869AC0E94310862
:101660008090280590902905A0902A05B0902B0520
:10167000332009F482C020912505222309F47DC07E
:1016800081149104A104B10409F477C0DC01CB01F9
:1016900088199909AA09BB090196A11DB11D883CA9
:1016A0009105A105B10508F068C080912705882340
:1016B00009F453C0D6016D917C91CE0101960E9430
:1016C0007808CE0101960E94BA0DB8EC8B0E911CE1
:1016D000A11CB11C19C089819A81DC01ED91FC919A
:1016E0000480F581E02D0995892B71F089819A811B
:1016F000DC01ED91FC910680F781E02D0995BC019C
:10170000CE0101960E947F090E9431086815790573
:101710008A059B0500F38D858111DDCF0E94C20DE6
:101720002CC0F60180819181DC01ED91FC91048057
:10173000F581E02D0995892BA9F0F6018081918131
:10174000DC01ED91FC910680F781E02D0995BC014B
:1017500080EB94E00E947F0905C0B8EC8B0E911CD1
:10176000A11CB11C0E943108681579058A059B05EA
:10177000C0F2F60184858111D4CF81E080932505E4
:101780004E01FAE38F0E911CD6018D919C91DC01E4
:10179000ED91FC910190F081E02D6FEF0995F6013C
:1017A00080819181DC01ED91FC910190F081E02D2F
:1017B00068E00995F60180819181DC01ED91FC9151
:1017C0000190F081E02D632D0995F60180819181D2
:1017D000DC01ED91FC910190F081E02D6FA909955C
:1017E000F60180819181DC01ED91FC910190F08105
:1017F000E02D68AD0995F60180819181DC01ED91C4
:10180000FC910190F081E02D662D0995F601808113
:101810009181DC01ED91FC91662D60950190F08144
:10182000E02D0995712C161417040CF057C0A12C4B
:10183000B12C412C512CF401E080F180B2E08B0EF0
:10184000911CF60180819181DC01ED91FC91019068
:10185000F081E02DD7016C910995F601808191818D
:10186000DC01ED91FC91D7016C9160950190F081C4
:10187000E02D0995F70180818823D9F0042D152DDD
:10188000D6018D919C91FC0120813181F701A181CC
:10189000B281A00FB11FF901208131816C91F90152
:1018A00009950F5F1F4FD7018C9190E0081719071A
:1018B0003CF3E114F10459F0F7018381882321F00E
:1018C000818192810E94F515C7010E942212FFEFCB
:1018D000AF1ABF0AA614B70409F0ADCFD6018D9197
:1018E0009C91DC01ED91FC910190F081E02D60E094
:1018F0000995332079F00E943108DC01CB01019673
:10190000A11DB11D8093280590932905A0932A0558
:10191000B0932B05A0960FB6F894DEBF0FBECDBFD7
:10192000DF91CF911F910F91FF90EF90DF90CF90BB
:10193000BF90AF909F908F907F906F905F904F90EF
:101940003F900895CF93DF93C82FD92F40E052ECFA
:1019500061E070E00E948E081F9282E08F931F92D8
:101960001F92DF93CF930E94110B81E080932D058E
:101970008091D2040F900F900F900F900F900F90C6
:101980008823B1F0C0E0D0E0CE01880F991FE0912C
:10199000D004F091D104E80FF91F808191810E9459
:1019A000FB0E21968091D20490E0C817D90764F30A
:1019B0008091D0049091D1040E94F515DF91CF91D0
:1019C00008950F931F93CF93DF93EC0116C0888186
:1019D0009981DC01ED91FC910680F781E02D09955C
:1019E0008C01BC017727CE010E947F098B8588235B
:1019F00021F0EE8DFF8D802F099588819981DC0182
:101A0000ED91FC910480F581E02D0995892BF9F683
:101A1000DF91CF911F910F91089580912705882321
:101A200021F09091260581E089270895CF93DF93D7
:101A3000C82FD92F0E940D0D811112C081E0809313
:101A400027051F9283E08F931F921F92DF93CF93FE
:101A50000E94110B0F900F900F900F900F900F900E
:101A6000DF91CF910895CF93DF93C82FD92F0E9494
:101A70000D0D882389F0109227051F9284E08F9323
:101A80001F921F92DF93CF930E94110B0F900F9024
:101A90000F900F900F900F90DF91CF91089580EBF2
:101AA00094E00E94E10C089588E290E00E946015A5
:101AB0009093D1048093D0046AE074E080EB94E0CA
:101AC0000E94780808950E940D0F0895CF92DF922A
:101AD000EF92FF920F931F93CF93DF93CDB7DEB7B3
:101AE0007C010DB71EB7FB0101900020E9F79F01B3
:101AF000261B370B2E5F3F4F8DB79EB7821B930B74
:101B00000FB6F8949EBF0FBE8DBFEDB7FEB73196EE
:101B10006F01EDB7FEB71182C6010E94AC17F60146
:101B200001900020E9F731978DE09AE0A0E08083F2
:101B30009183A283B601C7010E94120F0FB6F894D9
:101B40001EBF0FBE0DBFDF91CF911F910F91FF9070
:101B5000EF90DF90CF90089508952CEE31E0FC01D6
:101B600031832083638312820E9494080895FC01CC
:101B7000838108959093300580932F0581E08093B1
:101B80002E0508951092300510922F0510922E0503
:101B9000089580912E05882329F080912F0590913A
:101BA0003005089580EB94E008951F93CF93DF9361
:101BB000EC011B810E94C90D0E94A408181323C0C8
:101BC000CE010E94C90D0E94A7088F3FA9F48A8107
:101BD0008823C9F080EB94E00E940D0D811113C0A1
:101BE00080EB94E00E94160DEC81FD81099580EB5D
:101BF00094E00E94330D07C0E881F9810280F381EF
:101C0000E02DCE010995DF91CF911F9108956F923C
:101C10007F928F929F92AF92BF92CF92DF92EF927C
:101C2000FF920F931F93CF93DF937C01782E6F2C3D
:101C30000E94C90D0E94A708C82FC7010E94C90DA4
:101C400060E00E94AA08C13009F046C0C82ED12C1D
:101C50001C141D040CF040C0812C912CE701C15BC9
:101C6000DF4F8701075B1F4F57018DE4A80EB11CA2
:101C7000A9E0EA0EF11C872D962D0E94C90D60E0A7
:101C80000E94B308880D991DFC01208188819981EB
:101C900080349105D9F0D801ED91FC911197CF01D5
:101CA000019611969C938E932083288139812F5F12
:101CB0003F4F398328832D913C911197F501808105
:101CC00091812817390711F4ED92FC92FFEF8F1ADA
:101CD0009F0A8C149D0479F6DF91CF911F910F918B
:101CE000FF90EF90DF90CF90BF90AF909F908F903C
:101CF0007F906F900895CF93DF93EC0122E041E055
:101D000066E206960E94630D66E2CE010E94AD0D6A
:101D100084EF91E099838883CE010996FE01E75B09
:101D2000FF4F91838083DE01A55BBF4F11969C938B
:101D30008E931296ED93FC93C15BDF4F198218824C
:101D4000DF91CF910895CF92DF92EF92FF920F93A0
:101D50001F93CF93DF93FB0101900020E9F73197A8
:101D6000EF01C61BD70BF1F18B017C0184E090E001
:101D70000E941F126C01DC0113961C92FE01CF3FE2
:101D8000D10519F014F0EFEFF0E0D601EC931296C4
:101D90001C930E93119784E090E00E941F12FC01A7
:101DA000138282E0808397012D5F3F4F328321832E
:101DB000DF92CF92FF93EF938F93C1E0CF931F9267
:101DC00089E28F9380EB94E09F938F930E94110B95
:101DD000F701C0838DB79EB70A960FB6F8949EBFE1
:101DE0000FBE8DBFDF91CF911F910F91FF90EF90AC
:101DF000DF90CF900895CF93DF93FC0120812111D4
:101E000009C0EC01618172810E94A30E89819A81CF
:101E10000E94F515DF91CF910895FC016283208324
:101E200041830895EF92FF920F931F93CF93DF9317
:101E3000FB0101900020E9F73197EF01C61BD70B9A
:101E400071F18B017C0184E090E00E941F12DC01A3
:101E500013961C921397FE01CF3FD10519F014F091
:101E6000EFEFF0E0EC9312961C930E931197BF9353
:101E7000AF9381E08F93F70180818F931F928281CE
:101E80008F9380EB94E09F938F930E94110B8DB7FB
:101E90009EB708960FB6F8949EBF0FBE8DBFDF9118
:101EA000CF911F910F91FF90EF90089520917305AE
:101EB0003091740528173907F9F490913105809114
:101EC00032059817E1F0E0913105F0E0ED5CFA4F52
:101ED00080812091310530E02F5F3F4F2F733078A4
:101EE000332334F421503109206C3F6F2F5F3F4F73
:101EF0002093310590E008958FEF9FEF08958FEFC5
:101F00009FEF0895209173053091740528173907C4
:101F1000B1F4209132058091310530E0205C3F4FD3
:101F2000281B31092F733078332334F421503109C1
:101F3000206C3F6F2F5F3F4F822F932F089580E0DB
:101F400090E008951F93CF93DF93EC014C8D5D8D4E
:101F50004115510529F481E090E09B838A8339C0C3
:101F6000A989BA893889832F80951FB79E8D91FBE7
:101F7000772770F991FD6095F894772321F09C9173
:101F8000932B9C9303C09C9198239C93FA013197C7
:101F9000F1F798E060FF04C02C91232B2C9303C031
:101FA0002C9128232C93FA013197F1F766959150E3
:101FB00089F7772321F09C9189238C9303C08C911E
:101FC000382B3C931FBF8C8D9D8D0197F1F741E01D
:101FD00050E0CA01DF91CF911F91089520917305C0
:101FE000309174052817390739F48FB7F894109297
:101FF0003205109231058FBF0895209173053091FD
:1020000074052817390771F49091310580913205D4
:10201000981759F0E0913105F0E0ED5CFA4F8081BE
:1020200090E008958FEF9FEF08958FEF9FEF089551
:10203000E0917305F0917405E817F90769F4A38935
:10204000B4899C918589809589238C93109274051D
:102050001092730581E0089580E00895CF93DF9397
:10206000EC018A8D9B8D892BF1F080917305909105
:1020700074058C179D07C9F0009711F00E94181085
:102080008E8D8E7F8E8F1092320510923105D093F7
:102090007405C0937305EB89FC8990818D89892B28
:1020A000808381E003C080E001C080E0DF91CF91B8
:1020B00008951F920F920FB60F9211242F933F9302
:1020C0004F935F936F937F938F939F93AF93BF9340
:1020D000CF93DF93EF93FF93A0917305B0917405B5
:1020E000109709F481C05E968C915E9781FF0DC0B8
:1020F0001E96ED91FC911F9790811D968C911D97D6
:10210000982381E071F480E00CC01E96ED91FC9163
:102110001F9790811D968C911D97982381E009F05F
:1021200080E0882309F460C05396ED91FC915497A8
:10213000908155968C9155978095892380835696EA
:102140008D919C9157970197F1F758966D917C91DD
:1021500059971E96CD91DC911F971D965C911D9706
:1021600038E040E0FB013197F1F7842F90E095953E
:102170008795482F2881252309F04068315091F731
:102180005E968C915E9781FD40958091320590E03E
:1021900001968F739078992324F40197806C9F6F38
:1021A000019620913105281749F0E0913205F0E0C1
:1021B000ED5CFA4F40838093320507C05E968C91A8
:1021C0005E9781605E968C935E975A968D919C91F6
:1021D0005B970197F1F75396ED91FC91549790819D
:1021E00055968C91892B8083FF91EF91DF91CF9150
:1021F000BF91AF919F918F917F916F915F914F911F
:102200003F912F910F900FBE0F901F9018952CEFBC
:1022100031E0FC01318320830E94181008951F9340
:10222000CF93DF93EC01162F6E8D6695617081E080
:102230006827812F0E94931261E0812F0E9454121F
:10224000612F70E0FB01E458FF4FE491E88BFB0144
:10225000E057FF4FE491F0E0EE0FFF1FE255FF4F14
:10226000859194919A8B898BDF91CF911F910895DD
:102270001F93CF93DF93EC01162F60E0812F0E9414
:1022800054128E8D81FD04C061E0812F0E94931253
:102290001C87612F70E0FB01E458FF4FE491ED874C
:1022A000FB01E057FF4FE491F0E0EE0FFF1FEC550C
:1022B000FF4F859194919F878E87DF91CF911F91DA
:1022C00008951F93CF93DF93EC01162F1B821A8280
:1022D00088EE93E0A0E0B0E08C839D83AE83BF8363
:1022E0008CEF91E0998388831F8A1E8A198E188E3D
:1022F0001B8E1A8E1D8E1C8E8E8D8E7F20FB81F97B
:102300008E8F642FCE010E940F11612FCE010E948B
:102310003811DF91CF911F910895CF93DF93EC0196
:102320009A01AB011B8E1A8E198E188E1F8A1E8A77
:1023300060E079E08DE390E00E94E612F90124303C
:10234000310518F0C901039702C081E090E09D8F2C
:102350008C8F8C85863108F041C0B90176956795E0
:102360006431710518F06351710902C061E070E0D9
:102370007F8B6E8B369720F0B9016550710902C0D2
:1023800061E070E0798F688FB901660F771F260FC3
:10239000371F36952795369527952D30310510F145
:1023A0002C50310921C021E08E3008F420E081E07A
:1023B00001C0880F2A95EAF7982B909368009C85B6
:1023C0009830D0F09E3010F1963158F120E030E096
:1023D0002AC08D8B8C8D9D8D0197F1F7CE010E94C7
:1023E0002E102AC021E030E03B8F2A8F90916800A8
:1023F0008830C8F684E0E0CF2DE630E03C8B2B8BB4
:1024000081E001C0880F9A95EAF7E3CF2BE630E030
:102410003C8B2B8B985081E001C0880F9A95EAF78E
:10242000D8CF2CE630E03C8B2B8B9E5081E001C056
:10243000880F9A95EAF7CDCFDF91CF9108950E944A
:10244000601508950E94F5150895833069F028F409
:102450008130B1F08230C1F008958730C9F0883002
:10246000E9F0843001F506C0E0E8F0E080818F7784
:1024700080830895E0E8F0E080818F7D8083089577
:1024800084B58F7784BD089584B58F7D84BD08950C
:10249000E0EBF0E080818F7780830895E0EBF0E05F
:1024A00080818F7D80830895CF93DF9390E0FC013E
:1024B000E458FF4F2491FC01E057FF4F849188239B
:1024C00079F190E0880F991FFC01E854FF4FA59126
:1024D000B491FC01E255FF4FC591D49161110CC03C
:1024E0009FB7F8948C91E22FE0958E238C932881EE
:1024F000E223E8839FBF14C0623061F49FB7F89471
:102500003C91822F809583238C93E881E22BE88392
:102510009FBF06C08FB7F894EC91E22BEC938FBF6E
:10252000DF91CF9108951F93CF93DF93282F30E051
:10253000F901E859FF4F8491F901E458FF4F1491D4
:10254000F901E057FF4FC491CC23D1F0D62F811170
:102550000E942512EC2FF0E0EE0FFF1FE255FF4F17
:10256000A591B4918FB7F894D11106C09C91E12F39
:10257000E095E923EC9303C0EC91E12BEC938FBF42
:10258000DF91CF911F910895A1E21A2EAA1BBB1BC8
:10259000FD010DC0AA1FBB1FEE1FFF1FA217B3072F
:1025A000E407F50720F0A21BB30BE40BF50B661F45
:1025B000771F881F991F1A9469F760957095809509
:1025C00090959B01AC01BD01CF010895052E97FBAD
:1025D0001EF400940E94FD1257FD07D00E94C41201
:1025E00007FC03D04EF40C94FD12509540953095A5
:1025F00021953F4F4F4F5F4F08959095809570956F
:1026000061957F4F8F4F9F4F0895EE0FFF1F0590ED
:10261000F491E02D09945058BB27AA270E94231358
:102620000C944C140E943E1438F00E94451420F083
:1026300039F49F3F19F426F40C943B140EF4E09502
:10264000E7FB0C942714E92F0E945D1458F3BA1786
:10265000620773078407950720F079F4A6F50C94B8
:102660007F140EF4E0950B2EBA2FA02D0B01B901AB
:1026700090010C01CA01A0011124FF27591B99F0F8
:10268000593F50F4503E68F11A16F040A22F232F04
:10269000342F4427585FF3CF469537952795A79554
:1026A000F0405395C9F77EF41F16BA0B620B730BFB
:1026B000840BBAF09150A1F0FF0FBB1F661F771F6C
:1026C000881FC2F70EC0BA0F621F731F841F48F421
:1026D000879577956795B795F7959E3F08F0B0CFAA
:1026E0009395880F08F09927EE0F97958795089591
:1026F0000E948C130C944C140E94451458F00E94B4
:102700003E1440F029F45F3F29F00C942714511136
:102710000C9480140C943B140E945D1468F399236C
:10272000B1F3552391F3951B550BBB27AA276217CD
:102730007307840738F09F5F5F4F220F331F441FDA
:10274000AA1FA9F335D00E2E3AF0E0E832D091500E
:102750005040E695001CCAF72BD0FE2F29D0660FFB
:10276000771F881FBB1F261737074807AB07B0E83E
:1027700009F0BB0B802DBF01FF2793585F4F3AF044
:102780009E3F510578F00C9427140C9480145F3F01
:10279000E4F3983ED4F3869577956795B795F795CA
:1027A0009F5FC9F7880F911D9695879597F90895B2
:1027B000E1E0660F771F881FBB1F6217730784074E
:1027C000BA0720F0621B730B840BBA0BEE1F88F75D
:1027D000E0950895E89409C097FB3EF490958095A4
:1027E000709561957F4F8F4F9F4F9923A9F0F92FD7
:1027F00096E9BB279395F695879577956795B79555
:10280000F111F8CFFAF4BB0F11F460FF1BC06F5F3A
:102810007F4F8F4F9F4F16C0882311F096E911C04C
:10282000772321F09EE8872F762F05C0662371F06D
:1028300096E8862F70E060E02AF09A95660F771F81
:10284000881FDAF7880F9695879597F9089597F975
:102850009F6780E870E060E008959F3F31F09150FD
:1028600020F4879577956795B795880F911D969574
:10287000879597F908959FEF80EC089500240A94B6
:102880001616170618060906089500240A9412164B
:102890001306140605060895092E0394000C11F47E
:1028A000882352F0BB0F40F4BF2B11F460FF04C02B
:1028B0006F5F7F4F8F4F9F4F089557FD9058440F84
:1028C000551F59F05F3F71F04795880F97FB991F8F
:1028D00061F09F3F79F0879508951216130614064C
:1028E000551FF2CF4695F1DF08C0161617061806D9
:1028F000991FF1CF86957105610508940895E894B4
:10290000BB2766277727CB0197F908950E94991472
:102910000C944C140E943E1438F00E94451420F090
:10292000952311F00C9427140C943B1411240C944F
:1029300080140E945D1470F3959FC1F3950F50E0D1
:10294000551F629FF001729FBB27F00DB11D639F61
:10295000AA27F00DB11DAA1F649F6627B00DA11D07
:10296000661F829F2227B00DA11D621F739FB00DAD
:10297000A11D621F839FA00D611D221F749F33271D
:10298000A00D611D231F849F600D211D822F762FB6
:102990006A2F11249F5750409AF0F1F088234AF093
:1029A000EE0FFF1FBB1F661F771F881F91505040FF
:1029B000A9F79E3F510580F00C9427140C948014C5
:1029C0005F3FE4F3983ED4F3869577956795B79586
:1029D000F795E7959F5FC1F7FE2B880F911D9695A0
:1029E000879597F9089519F416F40C943B140C94F8
:1029F0002D140E946514B8F39923C9F3B6F39F57B9
:102A0000550B87FF0E9439150024A0E640EA90018B
:102A100080585695979528F4805C660F771F881F1D
:102A200020F026173707480730F4621B730B840B1E
:102A3000202931294A2BA695179407942025312562
:102A40004A2758F7660F771F881F20F02617370789
:102A5000480730F4620B730B840B200D311D411DB0
:102A6000A09581F7B901842F9158880F9695879585
:102A7000089591505040660F771F881FD2F7089530
:102A8000EF920F931F93CF93DF93E80147FD02C0AE
:102A900034E001C034E1E42F440FFF0BF7FF03C023
:102AA000F195E195F109E32E022F2E2FAE010E9440
:102AB000D319CE01DF91CF911F910F91EF9008951F
:102AC000CF93DF938230910510F482E090E0E091A3
:102AD0007705F091780520E030E0C0E0D0E0309755
:102AE00011F14081518148175907C0F04817590723
:102AF00061F482819381209719F09B838A832BC094
:102B0000909378058093770526C02115310519F03B
:102B10004217530718F49A01BE01DF01EF0102804A
:102B2000F381E02DDCCF2115310509F1281B390B8C
:102B30002430310590F412968D919C911397611574
:102B4000710521F0FB019383828304C09093780583
:102B500080937705FD01329644C0FD01E20FF31F1B
:102B600081939193225031092D933C933AC0209147
:102B7000750530917605232B41F4209102013091A7
:102B80000301309376052093750520910001309163
:102B900001012115310541F42DB73EB740910401E3
:102BA00050910501241B350BE0917505F0917605D8
:102BB000E217F307A0F42E1B3F0B2817390778F014
:102BC000AC014E5F5F4F2417350748F04E0F5F1F73
:102BD00050937605409375058193919302C0E0E090
:102BE000F0E0CF01DF91CF9108950F931F93CF9322
:102BF000DF93009709F48CC0FC0132971382128294
:102C000000917705109178050115110581F4208157
:102C10003181820F931F2091750530917605281719
:102C2000390779F5F0937605E093750571C0D80101
:102C300040E050E0AE17BF0750F412962D913C9142
:102C40001397AD012115310509F1D901F3CF9D018C
:102C5000DA013383228360817181860F971F821787
:102C6000930769F4EC0128813981260F371F2E5F05
:102C70003F4F318320838A819B8193838283452BBD
:102C800029F4F0937805E093770542C01396FC93FE
:102C9000EE931297ED01499159919E01240F351F32
:102CA000E217F30771F480819181840F951F0296DA
:102CB00011969C938E938281938113969C938E930D
:102CC0001297E0E0F0E0D80112968D919C91139755
:102CD000009719F0F8018C01F6CF8D919C91980125
:102CE0002E5F3F4F820F931F20917505309176051F
:102CF0002817390769F4309729F410927805109253
:102D0000770502C013821282109376050093750531
:102D1000DF91CF911F910F910895A0E0B0E0E3E91A
:102D2000F6E10C94031D5C016B017A0161157105DC
:102D300019F0FB0191838083E114F10429F0C701AC
:102D40000297839708F0F1C0E5012196F501108103
:102D5000812F90E00E949E17892B11F05E01F4CF25
:102D60001D3229F42196F501118101E007C01B32C3
:102D700021F4E5012296F501118100E0E114F1044E
:102D800059F1F0E1EF16F10461F41033E1F48881B8
:102D90008F7D883569F519812296026070E1E72EF2
:102DA000F12C88E0E816F10439F12CF4F2E0EF168A
:102DB000F104C9F12AC08AE0E816F10479F0E0E1F3
:102DC000EE16F10411F550E1E52EF12C812C912C39
:102DD000A12C68E0B62E2CC01033C9F23AE0E32EE5
:102DE000F12C4CEC842E982CA82C4CE0B42E20C056
:102DF00010E3E114F104A9F698E0E92EF12C812CFE
:102E0000912CA12C20E1B22E13C060E070E080E094
:102E100090E897010F2C000C440B550B0E94C41234
:102E200049015A0105C0812C912CA12C80E4B82EB7
:102E300060E020E030E0A90127010F2C000C6608BB
:102E400077081E01E0EDE10FEA3060F08FEB810FB3
:102E50008A3110F4E9EC05C08FE9810F8A3128F539
:102E6000E9EAE10F8E2F90E08E159F05F4F467FDDF
:102E700018C082169306A406B50690F0C301B201ED
:102E80000E94E81C9B01AC012E0F311D411D511DFC
:102E9000213031054105F0E85F0710F461E001C021
:102EA0006FEF2196F1011081CCCF802F8170C1147A
:102EB000D10471F0662329F02197F601D183C083F4
:102EC00007C001FF19C02297F601D183C08314C047
:102ED00067FF12C0811105C02FEF3FEF4FEF5FE793
:102EE00004C020E030E040E050E882E290E09093BF
:102EF0007A058093790516C0882341F05095409556
:102F0000309521953F4F4F4F5F4F0CC057FF0AC080
:102F100082E290E090937A05809379052FEF3FEF5E
:102F20004FEF5FE7B901CA0104C060E070E080E0E4
:102F300090E0CDB7DEB7E2E10C941F1D91110C9427
:102F4000391C803219F089508550C8F7089548E03F
:102F500052E00E94B7170895FB01DC010D9000209C
:102F6000E9F7119701900D920020E1F70895FA0119
:102F7000A191B081009719F41097E1F0CD01DC0127
:102F8000CD010D90002011F4C00113C0FB0121916F
:102F9000222319F02015D9F7F3CFFB012191201539
:102FA00019F41E92119606C02223C1F70D9000203D
:102FB000A1F7D001FA01A193B0830895AEE0B0E08B
:102FC000E4EEF7E10C94111D0D891E8986E08C83D7
:102FD0001A8309838FEF9FE79E838D83AE01475E3F
:102FE0005F4F6F89788DCE0101960E9401182F8165
:102FF0003885F801E20FF31F10822E96E4E00C945E
:103000002D1DACE0B0E0E7E0F8E10C94031D7C017D
:103010006B018A01FC0117821682838181FFBDC189
:10302000CE0101964C01F7019381F60193FD859144
:1030300093FF81916F01882309F4ABC1853239F484
:1030400093FD859193FF81916F01853229F4B7013A
:1030500090E00E94521CE7CF512C312C20E020320E
:10306000A0F48B3269F030F4803259F0833269F485
:1030700020612CC08D3239F0803339F4216026C0B4
:103080002260246023C0286021C027FD27C030EDC6
:10309000380F3A3078F426FF06C0FAE05F9E300D14
:1030A0001124532E13C08AE0389E300D1124332E84
:1030B00020620CC08E3221F426FD6BC1206406C054
:1030C0008C3611F4206802C0883641F4F60193FD75
:1030D000859193FF81916F018111C1CF982F9F7DC1
:1030E0009554933028F40C5F1F4FFFE3F9830DC014
:1030F000833631F0833771F0833509F05BC022C02D
:10310000F801808189830E5F1F4F44244394512C22
:10311000540115C03801F2E06F0E711CF801A08057
:10312000B18026FF03C0652D70E002C06FEF7FEF16
:10313000C5012C870E94471C2C0183012C852F7709
:10314000222E17C03801F2E06F0E711CF801A0802A
:10315000B18026FF03C0652D70E002C06FEF7FEFE6
:10316000C5012C870E943C1C2C012C852068222E36
:10317000830123FC1BC0832D90E048165906B0F450
:10318000B70180E290E00E94521C3A94F4CFF5011E
:1031900027FC859127FE81915F01B70190E00E9495
:1031A000521C31103A94F1E04F1A51084114510465
:1031B00071F7E5C0843611F0893639F5F80127FF3B
:1031C00007C060817181828193810C5F1F4F08C0AD
:1031D00060817181072E000C880B990B0E5F1F4FC9
:1031E0002F76722E97FF09C0909580957095619506
:1031F0007F4F8F4F9F4F2068722E2AE030E0A4014E
:103200000E948A1CA82EA81844C0853729F42F7E56
:10321000B22E2AE030E025C0F22FF97FBF2E8F3684
:10322000C1F018F4883579F0B4C0803719F08837C8
:1032300021F0AFC02F2F2061B22EB4FE0DC08B2D18
:103240008460B82E09C024FF0AC09F2F9660B92E53
:1032500006C028E030E005C020E130E002C020E1F7
:1032600032E0F801B7FE07C06081718182819381ED
:103270000C5F1F4F06C06081718180E090E00E5F9F
:103280001F4FA4010E948A1CA82EA818FB2DFF77AF
:103290007F2E76FE0BC0372D3E7FA51450F474FEB2
:1032A0000AC072FC08C0372D3E7E05C0BA2C372DEF
:1032B00003C0BA2C01C0B52C34FF0DC0FE01EA0DCD
:1032C000F11D8081803311F4397E09C032FF06C0C0
:1032D000B394B39404C0832F867809F0B39433FD7C
:1032E00013C030FF06C05A2CB31418F4530C5B18EB
:1032F000B32CB31468F4B70180E290E03C870E94DD
:10330000521CB3943C85F5CFB31410F43B1801C0A4
:10331000312C34FF12C0B70180E390E03C870E945B
:10332000521C3C8532FF17C031FD03C088E790E096
:1033300002C088E590E0B7010CC0832F867859F071
:1033400031FF02C08BE201C080E237FD8DE2B701A0
:1033500090E00E94521CA51438F4B70180E390E07D
:103360000E94521C5A94F7CFAA94F401EA0DF11D61
:103370008081B70190E00E94521CA110F5CF33204C
:1033800009F451CEB70180E290E00E94521C3A94B9
:10339000F6CFF7018681978102C08FEF9FEF2C96C1
:1033A000E2E10C941F1D4F925F926F927F929F9269
:1033B000AF92BF92CF92DF92EF92FF920F931F9343
:1033C000CF93DF93CDB7DEB729970FB6F894DEBF62
:1033D0000FBECDBF6A01122FB02E2BE3201720F0B5
:1033E000FF24F394F00E02C0BCE3FB2E0F2D27E068
:1033F000AE014F5F5F4F0E94611BAC018981982F26
:103400009970913031F0E1FC06C0E0FE06C090E218
:1034100005C09DE203C09BE201C090E0EE2DE0718B
:1034200083FF3CC0911102C083E001C084E081179A
:1034300018F4212F281B01C020E0E1110BC0F60178
:10344000822F30E2882319F031938150FBCFC20ED6
:10345000D11C20E0992329F0D6019C93F6013196E6
:103460006F01C6010396E2FE0AC03EE4D6013C931A
:1034700041E411964C93119712963C9306C03EE698
:10348000F601308341E641833283FC01322F40E272
:10349000332309F442C041933150FACF82FF44C034
:1034A000911102C083E001C084E0811718F4212F3C
:1034B000281B01C020E0E1110BC0F601822F30E291
:1034C000882319F031938150FBCFC20ED11C20E02C
:1034D000992329F0D6019C93F60131966F01C6011C
:1034E0000396E2FE0BC039E4D6013C933EE411960C
:1034F0003C93119736E412963C9307C039E6F601E7
:1035000030833EE6318336E63283FC01322F40E2DF
:10351000332319F041933150FBCFFC01E20FF11D31
:1035200010828EEF9FEFB7C0F1E0911101C0F0E083
:103530006F2F70E01416150624F49A012F5F3F4F89
:1035400002C021E030E0260F371FBB2029F06B2D91
:1035500070E06F5F7F4F02C060E070E0260F371FA2
:10356000612F70E0261737071CF4121B212F01C0B2
:1035700020E03E2D387159F4D601322F60E233231A
:1035800019F06D933150FBCFC20ED11C20E0FF2308
:1035900031F0D6019C93B6016F5F7F4F6B01E11153
:1035A0000BC0F601922F30E3992319F0319391501B
:1035B000FBCFC20ED11C20E09F2D940F3A81782FB3
:1035C0007071A72E84FF03C0313309F4915019168E
:1035D00024F4993018F098E001C091E0E42F852F91
:1035E00057FF02C0E0E080E06E2F782FE0E0F0E0CF
:1035F000AEE29A2E3A01691A71082A01461A570A50
:103600000B2D10E01195019511096F3F8FEF780791
:1036100029F4D6019C92C60101966C014617570702
:1036200084F0661677066CF47F01E40CF51CA1E0CB
:10363000B0E0AC0FBD1FEA0EFB1ED7011196BC9087
:1036400002C090E3B92E615071093196C60101960E
:103650007C016017710724F0D601BC926C01D5CFB4
:103660006417750741F4363320F4353321F4A11083
:1036700002C081E3B82EF601B082F701822F90E2FA
:10368000882319F091938150FBCFF701E20FF11DD0
:10369000108280E090E029960FB6F894DEBF0FBE4E
:1036A000CDBFDF91CF911F910F91FF90EF90DF90F1
:1036B000CF90BF90AF909F907F906F905F904F9012
:1036C0000895283008F027E03327DA01990F311DDB
:1036D00087FD916000966105710539F432602E5FB7
:1036E0003D9330E32A95E1F708959F3F30F080380D
:1036F0007105610509F03C5F3C5F3D93913008F036
:103700008068911DDF93CF931F930F93FF92EF92E9
:10371000192F987F9695E92F96959695E90FFF2793
:10372000E45EFE4F99273327EE24FF24A701E7012B
:1037300005900894079428F4360FE71EF81E491FD9
:10374000511D660F771F881F991F0694A1F70590DA
:10375000079428F4E70EF81E491F561FC11D770F66
:10376000881F991F661F0694A1F70590079428F4F7
:10377000F80E491F561FC71FD11D880F991F661FBE
:10378000771F0694A1F70590079420F4490F561F60
:10379000C71FD81F990F661F771F881F0694A9F7A8
:1037A00084911095177041F0D695C7955795479518
:1037B000F794E7941A95C1F7E2ECF0E0689415905D
:1037C000159135916591959105907FE27395E1187A
:1037D000F10A430B560BC90BD009C0F7E10CF11EDF
:1037E000431F561FC91FD01D7EF4703311F48A95F4
:1037F000E6CFE894015030F0080F0AF400270217D2
:1038000008F4202F2395022F7A3328F079E37D9353
:103810002A95E9F710C07D932A9589F60694979525
:103820006795379517951794E118F10A430B560BD6
:10383000C90BD00998F023957E9173957A3308F0DF
:1038400070E37C932013B8F77E9170617D9330F024
:10385000839571E37D9370E32A95E1F71124EF904E
:10386000FF900F911F91CF91DF91992787FD909540
:103870000895992788270895FC01059061507040AC
:103880000110D8F7809590958E0F9F1F0895FC0129
:103890006150704001900110D8F7809590958E0F7F
:1038A0009F1F08950F931F93CF93DF93FB012381F5
:1038B00021FD03C08FEF9FEF28C022FF16C0468175
:1038C0005781248135814217530744F4A081B18187
:1038D0009D012F5F3F4F318320838C932681378159
:1038E0002F5F3F4F3783268310C0EB01092F182F1E
:1038F0000084F185E02D0995892BE1F68E819F8169
:1039000001969F838E83812F902FDF91CF911F91FE
:103910000F910895FA01AA27283051F1203181F141
:10392000E8946F936E7F6E5F7F4F8F4F9F4FAF4FC7
:10393000B1E03ED0B4E03CD0670F781F891F9A1FDA
:10394000A11D680F791F8A1F911DA11D6A0F711D8E
:10395000811D911DA11D20D009F468943F912AE09A
:10396000269F11243019305D3193DEF6CF01089582
:10397000462F4770405D4193B3E00FD0C9F7F6CFB3
:10398000462F4F70405D4A3318F0495D31FD40527B
:10399000419302D0A9F7EACFB4E0A6959795879511
:1039A00077956795BA95C9F70097610571050895F0
:1039B0009B01AC010A2E069457954795379527959C
:1039C000BA95C9F7620F731F841F951FA01D089534
:1039D000DB018F939F930E94F81CBF91AF91A29F30
:1039E000800D911DA39F900DB29F900D11240895FD
:1039F0000E943A1DA59F900DB49F900DA49F800D2D
:103A0000911D112408952F923F924F925F926F92D1
:103A10007F928F929F92AF92BF92CF92DF92EF925E
:103A2000FF920F931F93CF93DF93CDB7DEB7CA1BDF
:103A3000DB0B0FB6F894DEBF0FBECDBF09942A880A
:103A4000398848885F846E847D848C849B84AA84B2
:103A5000B984C884DF80EE80FD800C811B81AA813F
:103A6000B981CE0FD11D0FB6F894DEBF0FBECDBF0A
:103A7000ED010895A29FB001B39FC001A39F700DF7
:103A8000811D1124911DB29F700D811D1124911D66
:103A9000089510E0C1EED0E004C0FE010E940513BD
:0C3AA0002196C23ED107C9F7F894FFCF71
:103AAC0000007B05200024504D544B3232302C3119
:103ABC003030302A31460024504D544B3330302CAA
:103ACC00313030302C302C302C302C302A3143001B
:103ADC0024504D544B3331342C302C312C302C3071
:103AEC002C302C302C302C302C302C302C302C30EA
:103AFC002C302C302C302C302C302C302C302A32DA
:103B0C0039004C617469747564653A2025732025FD
:103B1C0073204C6F6E6769747564653A2025732049
:103B2C00257320434F473A202573000000000039CD
:103B3C00068607B105CB05BD0517060D0A006E619B
:103B4C006E00696E66006F7666002E0046332000AC
:103B5C0046312000463220004331200043342000FF
:103B6C00433520004D3120004D32200043362000DB
:103B7C00433720004D3320004338200043392000C8
:103B8C00433220004333200000000000D50DAC0D63
:103B9C0000000000D50D070E00000000A20F8607E4
:083BAC00820F560FFD0FEE0F12
:00000001FF
