:100000000C9464000C948C000C948C000C940405EB
:100010000C9404050C9404050C948C000C948C0036
:100020000C948C000C948C000C948C000C948C0020
:100030000C948C000C948C000C948C000C948C0010
:100040000C947C030C948C000C9486020C94BE02DD
:100050000C948C000C948C000C948C000C948C00F0
:100060000C948C000C948C0000000008000201002D
:100070000003040700000000000000000102040863
:100080001020408001020408102001020408102002
:10009000040404040404040402020202020203032E
:1000A00003030303000000002300260029000000D2
:1000B0000000250028002B0000000000240027007D
:1000C0002A008E00EE02960011241FBECFEFD8E06A
:1000D000DEBFCDBF11E0A0E0B1E0E6E7F2E102C093
:1000E00005900D92AE38B107D9F723E0AEE8B1E044
:1000F00001C01D92A931B207E1F710E0C3E6D0E0DC
:1001000004C02197FE010E94AA07C136D107C9F792
:100110000E9412010C942E090C94000020E047E08C
:1001200068E08EE891E00E940C0608958EE891E068
:100130000E94B20508959F92AF92BF92DF92EF9214
:10014000FF920F931F93CF93DF9380E8EDEAF1E0E6
:10015000DF011D928A95E9F78F010F2EF4E2FF2E41
:10016000F02D99249394E12CD92CAA24A394B12C9A
:10017000CE2D01C0C82F8EE891E00E94A804019600
:10018000D1F38EE891E00E940104EC2FF0E0E355FA
:10019000FE4F8083CC2331F0843221F4F801F082C9
:1001A000CD2DE9CFD8018C91843229F781E08C0FD5
:1001B000EC2FF0E0E355FE4F90819A30D9F690E0B5
:1001C000FC01E555FE4F1082EC012597FE01E35539
:1001D000FE4F20812A3261F640E150E060E070E09D
:1001E00087559E4F0E94B007C230D10574F08A2D0A
:1001F0009B2D292DFC01E355FE4F808168272F5F41
:10020000822F90E08C179D07ACF36111B1CFDF9185
:10021000CF911F910F91FF90EF90DF90BF90AF9023
:100220009F9008950E94C60326E040E052EC61E0F2
:1002300070E08DE292E00E941D0240E855E260E02D
:1002400070E08EE891E00E94380660E071E08EE890
:1002500091E00E946A0361E171E08EE891E00E9402
:100260006A036AE271E08EE891E00E946A03C4E7E3
:10027000D1E00E949B006DEA71E08DE292E00E9465
:100280006A032097B1F30E947401F3CFFC01918DB2
:10029000228D892F90E0805C9F4F821B91098F7384
:1002A00099270895FC01918D828D981731F0828DE8
:1002B000E80FF11D858D90E008958FEF9FEF089571
:1002C000FC01918D828D981761F0828DDF01A80F5E
:1002D000B11D5D968C91928D9F5F9F73928F90E080
:1002E00008958FEF9FEF089584EE92E0892B49F0F7
:1002F00080E090E0892B29F00E94E40281110E94A5
:1003000000000895FC01848DDF01A80FB11DA35AE0
:10031000BF4F8C91248D30E02F5F3F4F2F7330788B
:10032000332334F421503109206C3F6F2F5F3F4F4E
:10033000248FA689B7898C93A089B1898C91806418
:100340008C93938D848D981306C00288F389E02DD9
:1003500080818F7D80830895CF93DF93EC01888D1A
:1003600081110FC018C00FB607FC0DC0908195FF1A
:100370000AC0A889B9898C9185FF05C0CE010E9469
:100380008201EA89FB89908195FDEDCFA889B98921
:100390008C9186FFE8CFDF91CF9108950F931F9343
:1003A000CF93DF93FC0181E0808F938D848D981330
:1003B00022C0A089B1898C9185FD2FC01CC00FB6C9
:1003C00007FC08C0E889F989808185FF03C0CE0158
:1003D0000E9482019C8D091791F38B8DFE01E80F1D
:1003E000F11DE35AFF4F10830B8FEA89FB8980814F
:1003F000806280831BC0238D30E02F5F3F4F2F73BF
:100400003078332334F421503109206C3F6F2F5F53
:100410003F4F162FEF01022FDDCFA689B7896C93CE
:100420000088F189E02D80818064808381E090E004
:10043000DF91CF911F910F910895BF92CF92DF92DC
:10044000EF92FF920F931F93CF93DF93EC016A011A
:100450007B01B22EE889F98982E080834115514EF3
:1004600061057105B1F060E079E08DE390E0A701EE
:1004700096010E94690789019A0101501109210919
:1004800031093695279517950795011580E11807CD
:10049000A8F0E889F989108260E874E88EE190E0BC
:1004A000A70196010E946907DA01C9010197A10914
:1004B000B109B695A795979587958C01EC85FD8533
:1004C0001083EE85FF850083188EEC89FD89B0824C
:1004D000EA89FB89808180618083EA89FB89808148
:1004E00088608083EA89FB89808180688083EA89CB
:1004F000FB8980818F7D8083DF91CF911F910F9148
:10050000FF90EF90DF90CF90BF9008951F920F92D1
:100510000FB60F9211242F938F939F93AF93BF9396
:10052000EF93FF93E0913D02F0913E02808182FDC6
:1005300014C0EDE2F2E0A689B7892C91818D8F5F1E
:100540008F73928D891771F0DF01E18DF0E0E35D2B
:10055000FD4F258F59968C9305C0E0914302F09191
:1005600044028081FF91EF91BF91AF919F918F9154
:100570002F910F900FBE0F901F9018951F920F9202
:100580000FB60F9211242F933F934F935F936F9366
:100590007F938F939F93AF93BF93EF93FF938DE2DE
:1005A00092E00E948201FF91EF91BF91AF919F91E4
:1005B0008F917F916F915F914F913F912F910F900C
:1005C0000FBE0F901F9018958DE292E00E94460199
:1005D00021E0892B09F420E0822F0895EDE2F2E07A
:1005E0001382128288EE93E0A0E0B0E084839583CA
:1005F000A683B78380E691E09183808385EC90E0C9
:100600009587848784EC90E09787868780EC90E0DC
:10061000918B808B81EC90E0938B828B82EC90E0CD
:10062000958B848B86EC90E0978B868B118E128E47
:10063000138E148E0895CF92DF92EF92FF920F9354
:100640001F93CF93DF9341155105B1F08C01E62E36
:10065000F72EEA01C12CD12CD7016D917D01D80173
:10066000ED91FC910190F081E02DC8010995C80E33
:10067000D91E219789F702C0C12CD12CC601DF9168
:10068000CF911F910F91FF90EF90DF90CF90089541
:100690006115710581F0FB0101900020E9F73197A8
:1006A000AF01461B570BDC01ED91FC910280F381F9
:1006B000E02D0995089580E090E00895DC01ED912A
:1006C000FC910280F381E02D42E050E06CE671E0A5
:1006D000099508950F931F93CF93DF93EC010E9428
:1006E00048038C01CE010E945E03800F911FDF91B1
:1006F000CF911F910F9108951F920F920FB60F92F5
:1007000011242F933F938F939F93AF93BF93809127
:10071000CB029091CC02A091CD02B091CE0230914B
:10072000CA0223E0230F2D3720F40196A11DB11D2D
:1007300005C026E8230F0296A11DB11D2093CA0211
:100740008093CB029093CC02A093CD02B093CE02C3
:100750008091CF029091D002A091D102B091D202AB
:100760000196A11DB11D8093CF029093D002A0935A
:10077000D102B093D202BF91AF919F918F913F91DF
:100780002F910F900FBE0F901F901895789484B5FD
:10079000826084BD84B5816084BD85B5826085BD7D
:1007A00085B5816085BDEEE6F0E080818160808363
:1007B000E1E8F0E010828081826080838081816046
:1007C0008083E0E8F0E0808181608083E1EBF0E00D
:1007D000808184608083E0EBF0E0808181608083B1
:1007E000EAE7F0E08081846080838081826080839A
:1007F0008081816080838081806880831092C100C5
:100800000895209115033091160328173907F9F43C
:100810009091D3028091D4029817E1F0E091D30235
:10082000F0E0EB52FD4F80812091D30230E02F5F4A
:100830003F4F2F733078332334F421503109206C2B
:100840003F6F2F5F3F4F2093D30290E008958FEFCB
:100850009FEF08958FEF9FEF08952091150330913A
:10086000160328173907B1F42091D4028091D302DE
:1008700030E0205C3F4F281B31092F733078332341
:1008800034F421503109206C3F6F2F5F3F4F822F8E
:10089000932F089580E090E008951F93CF93DF9306
:1008A000EC014C8D5D8D4115510529F481E090E0FE
:1008B0009B838A8339C0A989BA893889832F809517
:1008C0001FB79E8D91FB772770F991FD6095F89485
:1008D000772321F09C91932B9C9303C09C919823A8
:1008E0009C93FA013197F1F798E060FF04C02C91D6
:1008F000232B2C9303C02C9128232C93FA0131979E
:10090000F1F76695915089F7772321F09C9189231F
:100910008C9303C08C91382B3C931FBF8C8D9D8D85
:100920000197F1F741E050E0CA01DF91CF911F91AB
:10093000089520911503309116032817390739F4CB
:100940008FB7F8941092D4021092D3028FBF0895FB
:1009500020911503309116032817390771F49091EF
:10096000D3028091D402981759F0E091D302F0E0BD
:10097000EB52FD4F808190E008958FEF9FEF089537
:100980008FEF9FEF0895E0911503F0911603E8179C
:10099000F90769F4A389B4899C9185898095892395
:1009A0008C93109216031092150381E0089580E055
:1009B0000895CF93DF93EC018A8D9B8D892BF1F005
:1009C00080911503909116038C179D07C9F000972D
:1009D00011F00E94C3048E8D8E7F8E8F1092D402F0
:1009E0001092D302D0931603C0931503EB89FC89B0
:1009F00090818D89892B808381E003C080E001C0D4
:100A000080E0DF91CF9108951F920F920FB60F9261
:100A100011242F933F934F935F936F937F938F9303
:100A20009F93AF93BF93CF93DF93EF93FF93A091E7
:100A30001503B0911603109709F481C05E968C914E
:100A40005E9781FF0DC01E96ED91FC911F979081DE
:100A50001D968C911D97982381E071F480E00CC065
:100A60001E96ED91FC911F9790811D968C911D977C
:100A7000982381E009F080E0882309F460C0539650
:100A8000ED91FC915497908155968C915597809556
:100A90008923808356968D919C9157970197F1F702
:100AA00058966D917C9159971E96CD91DC911F9728
:100AB0001D965C911D9738E040E0FB013197F1F7FE
:100AC000842F90E095958795482F2881252309F05C
:100AD0004068315091F75E968C915E9781FD40950C
:100AE0008091D40290E001968F739078992324F43A
:100AF0000197806C9F6F01962091D302281749F0CF
:100B0000E091D402F0E0EB52FD4F40838093D40299
:100B100007C05E968C915E9781605E968C935E971F
:100B20005A968D919C915B970197F1F75396ED91B1
:100B3000FC915497908155968C91892B8083FF91DD
:100B4000EF91DF91CF91BF91AF919F918F917F9165
:100B50006F915F914F913F912F910F900FBE0F902A
:100B60001F90189521E831E0FC01318320830E9419
:100B7000C30408951F93CF93DF93EC01162F6E8D5E
:100B80006695617081E06827812F0E94380761E0D7
:100B9000812F0E94F906612F70E0FB01E458FF4F9E
:100BA000E491E88BFB01E057FF4FE491F0E0EE0F9A
:100BB000FF1FE255FF4F859194919A8B898BDF91AE
:100BC000CF911F9108951F93CF93DF93EC01162FC0
:100BD00060E0812F0E94F9068E8D81FD04C061E0E6
:100BE000812F0E9438071C87612F70E0FB01E458B9
:100BF000FF4FE491ED87FB01E057FF4FE491F0E0F8
:100C0000EE0FFF1FEC55FF4F859194919F878E87C4
:100C1000DF91CF911F9108951F93CF93DF93EC0144
:100C2000162F1B821A8288EE93E0A0E0B0E08C833E
:100C30009D83AE83BF8381E891E0998388831F8A77
:100C40001E8A198E188E1B8E1A8E1D8E1C8E8E8DEE
:100C50008E7F20FB81F98E8F642FCE010E94BA0512
:100C6000612FCE010E94E305DF91CF911F9108957E
:100C7000CF93DF93EC019A01AB011B8E1A8E198E74
:100C8000188E1F8A1E8A60E079E08DE390E00E9452
:100C90008B07F9012430310518F0C901039702C010
:100CA00081E090E09D8F8C8F8C85863108F041C06B
:100CB000B901769567956431710518F06351710932
:100CC00002C061E070E07F8B6E8B369720F0B90137
:100CD0006550710902C061E070E0798F688FB901D9
:100CE000660F771F260F371F369527953695279560
:100CF0002D30310510F12C50310921C021E08E300A
:100D000008F420E081E001C0880F2A95EAF7982BCB
:100D1000909368009C859830D0F09E3010F1963109
:100D200058F120E030E02AC08D8B8C8D9D8D01978D
:100D3000F1F7CE010E94D9042AC021E030E03B8FB8
:100D40002A8F909168008830C8F684E0E0CF2DE6C5
:100D500030E03C8B2B8B81E001C0880F9A95EAF73D
:100D6000E3CF2BE630E03C8B2B8B985081E001C029
:100D7000880F9A95EAF7D8CF2CE630E03C8B2B8B86
:100D80009E5081E001C0880F9A95EAF7CDCFDF91A0
:100D9000CF910895833069F028F48130B1F082302A
:100DA000C1F008958730C9F08830E9F0843001F54A
:100DB00006C0E0E8F0E080818F7780830895E0E866
:100DC000F0E080818F7D8083089584B58F7784BD26
:100DD000089584B58F7D84BD0895E0EBF0E08081B7
:100DE0008F7780830895E0EBF0E080818F7D8083B2
:100DF0000895CF93DF9390E0FC01E458FF4F2491D6
:100E0000FC01E057FF4F8491882379F190E0880F2F
:100E1000991FFC01E854FF4FA591B491FC01E255E4
:100E2000FF4FC591D49161110CC09FB7F8948C917C
:100E3000E22FE0958E238C932881E223E8839FBFE5
:100E400014C0623061F49FB7F8943C91822F809572
:100E500083238C93E881E22BE8839FBF06C08FB782
:100E6000F894EC91E22BEC938FBFDF91CF91089532
:100E70001F93CF93DF93282F30E0F901E859FF4FFC
:100E80008491F901E458FF4F1491F901E057FF4FA5
:100E9000C491CC23D1F0D62F81110E94CA06EC2F29
:100EA000F0E0EE0FFF1FE255FF4FA591B4918FB711
:100EB000F894D11106C09C91E12FE095E923EC93C1
:100EC00003C0EC91E12BEC938FBFDF91CF911F9189
:100ED0000895A1E21A2EAA1BBB1BFD010DC0AA1F7B
:100EE000BB1FEE1FFF1FA217B307E407F50720F093
:100EF000A21BB30BE40BF50B661F771F881F991F0E
:100F00001A9469F760957095809590959B01AC0156
:100F1000BD01CF010895052E97FB1EF400940E9499
:100F2000A20757FD07D00E94690707FC03D04EF4C3
:100F30000C94A20750954095309521953F4F4F4F07
:100F40005F4F089590958095709561957F4F8F4F75
:100F50009F4F0895EE0FFF1F0590F491E02D099427
:100F6000A0E0B0E0E6EBF7E00C94E8085C016B0170
:100F70007A016115710519F0FB0191838083E114F9
:100F8000F10429F0C7010297839708F0F1C0E50149
:100F90002196F5011081812F90E00E94C108892BD4
:100FA00011F05E01F4CF1D3229F42196F501118173
:100FB00001E007C01B3221F4E5012296F501118101
:100FC00000E0E114F10459F1F0E1EF16F10461F4ED
:100FD0001033E1F488818F7D883569F51981229677
:100FE000026070E1E72EF12C88E0E816F10439F197
:100FF0002CF4F2E0EF16F104C9F12AC08AE0E816F9
:10100000F10479F0E0E1EE16F10411F550E1E52E7E
:10101000F12C812C912CA12C68E0B62E2CC0103321
:10102000C9F23AE0E32EF12C4CEC842E982CA82C3B
:101030004CE0B42E20C010E3E114F104A9F698E0CE
:10104000E92EF12C812C912CA12C20E1B22E13C081
:1010500060E070E080E090E897010F2C000C440BFA
:10106000550B0E94690749015A0105C0812C912C3A
:10107000A12C80E4B82E60E020E030E0A901270137
:101080000F2C000C660877081E01E0EDE10FEA3036
:1010900060F08FEB810F8A3110F4E9EC05C08FE925
:1010A000810F8A3128F5E9EAE10F8E2F90E08E1545
:1010B0009F05F4F467FD18C082169306A406B506D2
:1010C00090F0C301B2010E94CD089B01AC012E0F2C
:1010D000311D411D511D213031054105F0E85F07EB
:1010E00010F461E001C06FEF2196F1011081CCCFC7
:1010F000802F8170C114D10471F0662329F02197EB
:10110000F601D183C08307C001FF19C02297F60101
:10111000D183C08314C067FF12C0811105C02FEFB7
:101120003FEF4FEF5FE704C020E030E040E050E8E1
:1011300082E290E0909318038093170316C08823EF
:1011400041F050954095309521953F4F4F4F5F4F5F
:101150000CC057FF0AC082E290E09093180380937E
:1011600017032FEF3FEF4FEF5FE7B901CA0104C04C
:1011700060E070E080E090E0CDB7DEB7E2E10C9493
:10118000040991110C94CA08803219F089508550D5
:10119000C8F70895992788270895DB018F939F93B7
:1011A0000E94DD08BF91AF91A29F800D911DA39F6A
:1011B000900DB29F900D112408950E941F09A59FC4
:1011C000900DB49F900DA49F800D911D1124089542
:1011D0002F923F924F925F926F927F928F929F9247
:1011E000AF92BF92CF92DF92EF92FF920F931F9335
:1011F000CF93DF93CDB7DEB7CA1BDB0B0FB6F894E6
:10120000DEBF0FBECDBF09942A88398848885F8425
:101210006E847D848C849B84AA84B984C884DF8096
:10122000EE80FD800C811B81AA81B981CE0FD11D7A
:101230000FB6F894DEBF0FBECDBFED010895A29F9B
:10124000B001B39FC001A39F700D811D1124911D9A
:10125000B29F700D811D1124911D089510E0C3E609
:10126000D0E004C0FE010E94AA072196C436D1072F
:06127000C9F7F894FFCF5E
:1012760024504D544B3232302C313030302A3146E6
:101286000024504D544B3330302C313030302C301C
:101296002C302C302C302A31430024504D544B3303
:1012A60031342C302C312C302C302C302C302C304E
:1012B6002C302C302C302C302C302C302C302C3048
:1012C6002C302C302C302C302A3239000000000013
:1012D600CE011B03460160015201AC010D0A006EEE
:1012E600616E00696E66006F7666002E0000000073
:0E12F600004D041B032D040104A804990400FC
:00000001FF
