:100000000C94E2000C940A010C940A010C94C710A1
:100010000C94C7100C94C7100C940A010C940A019C
:100020000C940A010C940A010C940A010C940A0124
:100030000C940A010C940A010C940A010C940A0114
:100040000C9455080C940A010C945F070C949707C4
:100050000C940A010C940A010C940A010C940A01F4
:100060000C940A010C940A0100000008000201002F
:100070000003040700000000000000000102040863
:100080001020408001020408102001020408102002
:10009000040404040404040402020202020203032E
:1000A00003030303000000002300260029000000D2
:1000B0000000250028002B0000000000240027007D
:1000C0002A0000407A10F35A00A0724E180900105E
:1000D000A5D4E80000E87648170000E40B540200BD
:1000E00000CA9A3B000000E1F505000080969800E8
:1000F000000040420F000000A08601000000102711
:1001000000000000E80300000000640000000000A0
:100110000A00000000000100000000002C76D888D2
:10012000DC674F0823DFC1DFAE59E1B1B796E5E3E5
:10013000E453C63AE651997696E8E6C28426EB89FE
:100140008C9B62ED407C6FFCEFBC9C9F40F2BAA59B
:100150006FA5F490055A2AF75C936B6CF9676DC133
:100160001BFCE0E40D47FEF520E6B500D0ED902E37
:100170000300943577050080841E080000204E0A95
:10018000000000C80C333333330F986E12831141D3
:10019000EF8D2114893BE65516CFFEE6DB18D1849E
:1001A0004B381BF77C1D901DA4BBE42420328472C5
:1001B0005E228100C9F124ECA1E53D27E104C707D7
:1001C000C20DEC0411241FBECFEFD8E0DEBFCDBFBF
:1001D00011E0A0E0B1E0E8E8FBE302C005900D9279
:1001E000A43FB107D9F725E0A4EFB1E001C01D920B
:1001F000A736B207E1F710E0C1EED0E004C02197C6
:10020000FE010E947313CE3DD107C9F70E94460537
:100210000C94B71D0C9400004F925F926F927F92E6
:100220008F929F92AF92BF92CF92DF92EF92FF9206
:100230000F931F93CF93DF9300D000D0CDB7DEB7DD
:1002400029013A019B01AC01C801B7010E94791351
:1002500069837A838B839C83A3019201C601B501D4
:100260000E9479136B017C0129813A814B815C8169
:10027000CA01B9010E94F4144B015C01A701960167
:10028000C701B6010E94F4149B01AC01C501B40181
:100290000E947A130E94671520E030E048EC52E497
:1002A0000E94F4142DEC3CE04DE455E40E94F4145B
:1002B0000F900F900F900F90DF91CF911F910F91A2
:1002C000FF90EF90DF90CF90BF90AF909F908F9076
:1002D0007F906F905F904F9008954F925F926F92D2
:1002E0007F928F929F92AF92BF92CF92DF92EF92C6
:1002F000FF920F931F93CF93DF93CDB7DEB72A976B
:100300000FB6F894DEBF0FBECDBF2CE230E03A83CB
:100310002983BE016F5F7F4F0E941518BE016F5F7A
:100320007F4F80E090E00E941518BE016F5F7F4F05
:1003300080E090E00E941518BE016F5F7F4F80E063
:1003400090E00E9415188C01DC016C9170E0605304
:100350007109072E000C880B990B0E945A1420E09B
:1003600030E040E251E40E94F4146B017C01F8019A
:10037000628170E060537109072E000C880B990BA5
:100380000E945A1420E030E040E251E40E94F4144C
:100390006B837C838D839E83D80115966C9170E06E
:1003A00060537109072E000C880B990B0E945A1498
:1003B00020E030E040E251E40E94F4144B015C0183
:1003C000F801668170E060537109072E000C880BFC
:1003D000990B0E945A149B01AC01C501B4010E9403
:1003E0007A134B015C01D80117966C9170E0605351
:1003F0007109072E000C880B990B0E945A1420E0FB
:1004000030E040E251E40E94F4142B013C0120E072
:1004100030E048EC52E4C501B4010E94F4144B01F1
:100420005C01F801608570E060537109072E000CD3
:10043000880B990B0E945A149B01AC01C301B201B5
:100440000E947A139B01AC01C501B4010E947A138A
:100450004B015C01D80111966C9170E060537109F9
:10046000072E000C880B990B0E945A149B01AC01BB
:10047000C701B6010E947A136B017C01F801638108
:1004800070E060537109072E000C880B990B0E94D5
:100490005A149B01AC016B817C818D819E810E94ED
:1004A0007A132B013C0127E137EB41ED58E3C501FD
:1004B000B4010E94F4149B01AC01C301B2010E947B
:1004C0007A1320E030E040E752E40E94E6139B01FB
:1004D000AC01C701B6010E947A136093F2037093D6
:1004E000F3038093F4039093F503BE016F5F7F4F96
:1004F00080E090E00E9415189093E9038093E80350
:10050000E091E603F091E70380818F7D833589F4E4
:100510008091F2039091F303A091F403B091F5035D
:10052000B0588093F2039093F303A093F403B09335
:10053000F503BE016F5F7F4F80E090E00E941518C9
:100540008C01DC016C9170E060537109072E000C86
:10055000880B990B0E945A146B017C01F801618190
:1005600070E060537109072E000C880B990B0E94F4
:100570005A1420E030E040E251E40E94F4144B01B0
:100580005C01D80112968C9190E0C097BC01990F44
:10059000880B990B0E945A149B01AC01C501B40150
:1005A0000E947A136B837C838D839E83F801638121
:1005B00070E060537109072E000C880B990B0E94A4
:1005C0005A1420E030E040E251E40E94F4146F83BA
:1005D000788789879A87D80116966C9170E0605366
:1005E0007109072E000C880B990B0E945A1420E009
:1005F00030E040E251E40E94F4144B015C01F80148
:10060000678170E060537109072E000C880B990B0D
:100610000E945A149B01AC01C501B4010E947A13D7
:100620004B015C01D80118966C9170E06053710920
:10063000072E000C880B990B0E945A1420E030E022
:1006400040E251E40E94F4142B013C0120E030E030
:1006500048EC52E4C501B4010E94F4144B015C0162
:10066000F801618570E060537109072E000C880B5A
:10067000990B0E945A149B01AC01C301B2010E9464
:100680007A139B01AC01C501B4010E947A134B019E
:100690005C0120E030E048EC52E4C701B6010E9462
:1006A000F4149B01AC016B817C818D819E810E9441
:1006B0007A136B017C01D80114966C9170E0605341
:1006C0007109072E000C880B990B0E945A149B018C
:1006D000AC016F81788589859A850E947A132B01F8
:1006E0003C0127E137EB41ED58E3C501B4010E941D
:1006F000F4149B01AC01C301B2010E947A1320E003
:1007000030E040E752E40E94E6139B01AC01C701D0
:10071000B6010E947A136093EE037093EF03809307
:10072000F0039093F103BE016F5F7F4F80E090E094
:100730000E9415189093E7038093E603FC018081E3
:100740008F7D873589F48091EE039091EF03A0911E
:10075000F003B091F103B0588093EE039093EF0350
:10076000A093F003B093F103BE016F5F7F4F80E071
:1007700090E00E941518BE016F5F7F4F80E090E00F
:100780000E9415187C01FC0101900020E9F73197C7
:10079000E81BF90BDC016C91E630F10508F45EC052
:1007A00070E060537109072E000C880B990B0E94B2
:1007B0005A1420E030E048EC52E40E94F4146B83B9
:1007C0007C838D839E83F701618170E060537109A2
:1007D000072E000C880B990B0E945A1420E030E081
:1007E00040E251E40E94F4146F83788789879A87E6
:1007F000D70112966C9170E060537109072E000CBE
:10080000880B990B0E945A142B013C01F70164815B
:1008100070E060537109072E000C880B990B0E9441
:100820005A142DEC3CEC4CEC5DE30E94F4144B01AB
:100830005C01D70115966C9170E060537109072E29
:10084000000C880B990B0E945A142AE037ED43E202
:100850005CE30E94F4146B017C017EC0DC01139602
:100860001C9170E060537109072E000C880B990BE6
:10087000359709F040C00E945A1420E030E040E271
:1008800051E40E94F4146F83788789879A87F7016F
:10089000618170E060537109072E000C880B990B81
:1008A0000E945A142B013C01612F70E060537109C2
:1008B000072E000C880B990B0E945A142DEC3CEC6F
:1008C0004CEC5DE30E94F4144B015C01D7011496DB
:1008D0006C9170E060537109072E000C880B990B26
:1008E0000E945A142AE037ED43E25CE30E94F414BC
:1008F0006B017C012DC00E945A142B013C01F701B1
:10090000628170E060537109072E000C880B990B0F
:100910000E945A142DEC3CEC4CEC5DE30E94F41464
:100920004B015C01612F70E060537109072E000CD0
:10093000880B990B0E945A142AE037ED43E25CE3DE
:100940000E94F4146B017C011F82188619861A8696
:100950001B821C821D821E822F81388549855A8503
:100960006B817C818D819E810E947A13A30192010B
:100970000E947A13A50194010E947A13A70196019F
:100980000E947A136093EA037093EB038093EC0365
:100990009093ED032A960FB6F894DEBF0FBECDBF3D
:1009A000DF91CF911F910F91FF90EF90DF90CF904B
:1009B000BF90AF909F908F907F906F905F904F907F
:1009C000089520E047E068E087E492E00E94CF11BC
:1009D00086EF91E00C94E90E87E492E00C94751197
:1009E000CF93DF9380E8E6E6F2E0DF011D928A957F
:1009F000E9F7C0E087E492E00E946B100196D1F322
:100A000087E492E00E94C40FEC2FF0E0EA59FD4F1A
:100A10008083CC2329F0843219F480936602C0E0ED
:100A200080916602843231F781E08C0FEC2FF0E088
:100A3000EA59FD4F90819A3011F0C82FDBCF90E03A
:100A4000FC01EC59FD4F1082EC012597FE01EA599B
:100A5000FD4F20812A3269F640E150E060E070E00D
:100A60008E599D4F0E94FB1621E0822F90E08C173B
:100A70009D073CF4FC01EA59FD4F808168272F5FF8
:100A8000F4CF6111B6CFDF91CF910895CF93DF936B
:100A9000CDB7DEB7EE970FB6F894DEBF0FBECDBF71
:100AA0000E94AB0826E040E052EC61E070E086EF87
:100AB00093E00E94F6068CE994E00E94100D40E855
:100AC00055E260E070E087E492E00E94FB1166E08E
:100AD00071E087E492E00E94430867E171E087E4F7
:100AE00092E00E94430860E371E087E492E00E9494
:100AF0004308CE01C1969EAF8DAF4E0195E2890E9F
:100B0000911C3E01A9E16A0E711C0E94F00486E668
:100B100092E00E946D012090F2033090F303409028
:100B2000F4035090F5036091EE037091EF03809110
:100B3000F0039091F1032DE2A22E23ECB22E24EECD
:100B4000C22E21E4D22E18E7E12E1CE9F12E02EA92
:100B500012ECA20191010E940C016B017C018E013B
:100B60000F5C1F4F24E044E0C201B1010E94AE15AA
:100B70006091EE037091EF038091F0039091F10387
:100B8000840124E044E00E94AE156091EA03709174
:100B9000EB038091EC039091ED03830122E045E0AB
:100BA0000E94AE157F926F928091E7038F938091A0
:100BB000E6038F939F928F928091E9038F938091A8
:100BC000E8038F93BEADBF938DAD8F93A2E6B1E0E6
:100BD000BF93AF93A6EEB2E0BF93AF930E944C18C1
:100BE00066EE72E08CEF91E00E94D40D8E01035FFF
:100BF0001F4F24E044E0C701B6010E94AE15B801C2
:100C00008CEF91E00E94D40D0C50110924E044E0D7
:100C100060E070E0CB010E94AE15B8018CEF91E06E
:100C20000E94D40D0FB6F894DEBF0FBECDBF8DE489
:100C300096E0892B09F469CF0E944D0666CFFC012E
:100C4000918D228D892F90E0805C9F4F821B9109AE
:100C50008F7399270895FC01918D828D981731F03B
:100C6000828DE80FF11D858D90E008958FEF9FEF45
:100C70000895FC01918D828D981761F0828DDF01BE
:100C8000A80FB11D5D968C91928D9F5F9F73928F7F
:100C900090E008958FEF9FEF08958DEB97E0892BFB
:100CA00049F08DEB9DE0892B29F00E94BD07811151
:100CB0000E94BD0D0895FC01848DDF01A80FB11DB8
:100CC000A35ABF4F8C91248D30E02F5F3F4F2F737D
:100CD0003078332334F421503109206C3F6F2F5F7B
:100CE0003F4F248FA689B7898C93A089B1898C91B5
:100CF00080648C93938D848D981306C00288F38949
:100D0000E02D80818F7D80830895CF93DF93EC0168
:100D1000888D81110FC018C00FB607FC0DC09081DF
:100D200095FF0AC0A889B9898C9185FF05C0CE01BD
:100D30000E945B06EA89FB89908195FDEDCFA88929
:100D4000B9898C9186FFE8CFDF91CF9108950F93F9
:100D50001F93CF93DF93FC0181E0808F938D848D6F
:100D6000981322C0A089B1898C9185FD2FC01CC029
:100D70000FB607FC08C0E889F989808185FF03C0A8
:100D8000CE010E945B069C8D091791F38B8DFE01AD
:100D9000E80FF11DE35AFF4F10830B8FEA89FB899F
:100DA0008081806280831BC0238D30E02F5F3F4FA6
:100DB0002F733078332334F421503109206C3F6F86
:100DC0002F5F3F4F162FEF01022FDDCFA689B78986
:100DD0006C930088F189E02D80818064808381E0BC
:100DE00090E0DF91CF911F910F910895BF92CF9224
:100DF000DF92EF92FF920F931F93CF93DF93EC015B
:100E00006A017B01B22EE889F98982E0808341156D
:100E1000514E61057105B1F060E079E08DE390E03D
:100E2000A70196010E94321389019A01015011090C
:100E3000210931093695279517950795011580E108
:100E40001807A8F0E889F989108260E874E88EE153
:100E500090E0A70196010E943213DA01C9010197BF
:100E6000A109B109B695A795979587958C01EC8551
:100E7000FD851083EE85FF850083188EEC89FD8942
:100E8000B082EA89FB89808180618083EA89FB895D
:100E9000808188608083EA89FB8980818068808383
:100EA000EA89FB8980818F7D8083DF91CF911F91BB
:100EB0000F91FF90EF90DF90CF90BF9008951F9219
:100EC0000F920FB60F9211242F938F939F93AF938E
:100ED000BF93EF93FF93E0910604F09107048081A4
:100EE00082FD14C0E6EFF3E0A689B7892C91818DCD
:100EF0008F5F8F73928D891771F0DF01E18DF0E0C4
:100F0000EA50FC4F258F59968C9305C0E0910C0454
:100F1000F0910D048081FF91EF91BF91AF919F916E
:100F20008F912F910F900FBE0F901F9018951F92C9
:100F30000F920FB60F9211242F933F934F935F930D
:100F40006F937F938F939F93AF93BF93EF93FF9391
:100F500086EF93E00E945B06FF91EF91BF91AF9106
:100F60009F918F917F916F915F914F913F912F91C1
:100F70000F900FBE0F901F90189586EF93E00E9480
:100F80001F0621E0892B09F420E0822F0895E6EF67
:100F9000F3E01382128288EE93E0A0E0B0E0848355
:100FA0009583A683B7838BE791E09183808385EC5B
:100FB00090E09587848784EC90E09787868780EC23
:100FC00090E0918B808B81EC90E0938B828B82EC14
:100FD00090E0958B848B86EC90E0978B868B118EBE
:100FE000128E138E148E0895CF92DF92EF92FF929D
:100FF0000F931F93CF93DF9341155105B1F08C01EF
:10100000E62EF72EEA01C12CD12CD7016D917D017E
:10101000D801ED91FC910190F081E02DC801099576
:10102000C80ED91E219789F702C0C12CD12CC60148
:10103000DF91CF911F910F91FF90EF90DF90CF90B4
:1010400008956115710581F0FB0101900020E9F719
:101050003197AF01461B570BDC01ED91FC910280EB
:10106000F381E02D0995089580E090E00895DC017A
:10107000ED91FC910280F381E02D42E050E067E8C1
:1010800071E0099508950F931F93CF93DF93EC01BF
:101090000E9421088C01CE010E943708800F911F09
:1010A000DF91CF911F910F9108951F920F920FB66C
:1010B0000F9211242F933F938F939F93AF93BF93DE
:1010C0008091940490919504A0919604B091970416
:1010D0003091930423E0230F2D3720F40196A11DB6
:1010E000B11D05C026E8230F0296A11DB11D209356
:1010F00093048093940490939504A0939604B093E2
:1011000097048091980490919904A0919A04B091C9
:101110009B040196A11DB11D80939804909399049E
:10112000A0939A04B0939B04BF91AF919F918F912C
:101130003F912F910F900FBE0F901F9018952FB7D2
:10114000F894609194047091950480919604909124
:1011500097042FBF0895789484B5826084BD84B5C8
:10116000816084BD85B5826085BD85B5816085BDA2
:10117000EEE6F0E0808181608083E1E8F0E01082BB
:10118000808182608083808181608083E0E8F0E0FC
:10119000808181608083E1EBF0E0808184608083E6
:1011A000E0EBF0E0808181608083EAE7F0E080811D
:1011B000846080838081826080838081816080837D
:1011C0008081806880831092C1000895FC01718342
:1011D000608316861786108A118A128A138A148AE7
:1011E000118E1586168217821092120514861086AB
:1011F000118612861386089526E086EF93E00E94FA
:10120000F6060895E0911805E93259F021E02E0F15
:1012100020931805F0E0EE0FFF1FE154FB4F918380
:1012200080830895FC0186850895FC0180890895D6
:10123000DC015796ED91FC915897E60FF11D8081E6
:10124000089570E0DC015796ED91FC915897E60FF8
:10125000F71F2081222359F0660F771F5596ED91D5
:10126000FC915697E60FF71F80819181089580E0E9
:1012700090E008950F931F93CF93DF938C01DC01CF
:101280001C961C921C9716968C9116978823A9F190
:101290001D968C918823F9F0C0E0D0E0D8015596D6
:1012A000ED91FC9156979E01220F331FE20FF31F21
:1012B00080819181009711F00E94631668E971E0C6
:1012C00086EF93E00E9421082196F801258530E001
:1012D000C217D3071CF3D8011D961C921D97559673
:1012E0008D919C9156970E9463166CE971E086EF90
:1012F00093E00E942108F8011682D80117968C917C
:101300001797882371F057968D919C9158970E945A
:10131000631660EA71E086EF93E00E944308F801EB
:101320001782DF91CF911F910F910895FC01808961
:10133000823051F410868185882319F1028CF38D57
:10134000E02D80E009950895813051F480878185F2
:101350008823B9F0028CF38DE02D81E00995089582
:10136000833079F41F9281E08F931F921F92FF9335
:10137000EF930E947F0B0F900F900F900F900F90A4
:101380000F9008950F931F93CF93DF932091AA049A
:10139000222329F080911805811104C019C00E94F0
:1013A000960916C00FEB14E0C0E0D0E0D8018D9193
:1013B0009D918D01DC01ED91FC910190F081E02D7A
:1013C000099521968091180590E0C817D90774F304
:1013D000DF91CF911F910F910895BF92CF92DF922D
:1013E000EF92FF920F931F93CF93DF93EC018B014A
:1013F0006F3F8FEF780709F478C19C85911169C11F
:101400006F3F710589F4CE010E943A0981E08C8713
:101410001E8A1D8A188E1F8A898B64EA71E086EF06
:1014200093E00E94210861C18989843009F055C187
:101430005CC168EA71E086EF93E00E9421081B8A94
:101440001A8A0C8B89898F5F898B4FC16CEA71E096
:1014500086EF93E00E9421082C898FEF90E0821B99
:1014600091098017910731F5211103C089E0898B1B
:101470003CC1822F90E0880F991F0E94CE159E8B51
:101480008D8B60EB71E086EF93E00E94210811E004
:101490001E838C8990E00E94CE15988F8F8B64EB11
:1014A00071E086EF93E00E9421081F8389898F5F96
:1014B000898B1BC11C86CE010E943A0916C1863059
:1014C00099F4992309F411C168EB71E086EF93E078
:1014D0000E9421088A89EF89F88DE80FF11D0083A9
:1014E00089898F5F898B01C1873009F04CC09923AE
:1014F00009F4FBC06CEB71E086EF93E00E942108D9
:101500002A8930E0EF89F88DE20FF31F80814FEFD9
:1015100050E0481B51094017510781F58823B1F06D
:10152000220F331F0D891E89020F131F90E00E94A6
:10153000CE15F8019183808360EC71E086EF93E033
:101540000E94210889898F5F898B14C0220F331F65
:10155000ED89FE89E20FF31F118210821B8A8A89AE
:101560008F5F8A8B9C89891303C089E0898B02C0B5
:1015700086E0898B8D858F5F8D87B7C01C86CE01F5
:101580000E943A09B2C0883099F5992309F4ADC098
:1015900064EC71E086EF93E00E942108EA89F0E0B4
:1015A000EE0FFF1F8D899E89E80FF91F80819181C1
:1015B000009741F02B8931E0320F3B8BFC01E20FA9
:1015C000F11D00838A89EF89F88DE80FF11D2B89C1
:1015D000908129138AC01B8A8F5F8A8B9C8989130B
:1015E00004C089898F5F898B80C086E0898B7DC02C
:1015F000893029F5992309F478C068EC71E086EF09
:1016000093E00E942108098F011115C0CE010E94AC
:10161000C2098A85882359F0ED88FE880F89188DC4
:10162000EC8DFD8D2C8948896F858E850995CE01BD
:101630000E943A095AC0CE010E943A0956C0992325
:1016400009F453C0813071F50E870023F1F18A85CA
:1016500081113BC0809118058823F9F00F2EFFEB14
:10166000EF2EF4E0FF2EF02D00E010E0C12CBB24A3
:10167000B394DE84F701819191917F010E94250E40
:10168000D81201C0CB2C0F5F1F4F8091180590E03E
:101690000817190774F3C11018C01C86CE010E94E8
:1016A0003A0923C0823041F40F876CEC71E086EF79
:1016B00093E00E94210809C0833039F4088B60ED63
:1016C00071E086EF93E00E94210889898F5F898B02
:1016D0000CC08989843029F4ACCE853009F0EFCE76
:1016E00004C0853009F0EBCEB1CEDF91CF911F91D0
:1016F0000F91FF90EF90DF90CF90BF9008953F92B1
:101700004F925F926F927F928F929F92AF92BF9211
:10171000CF92DF92EF92FF920F931F93CF93DF93BD
:10172000CDB7DEB7A0970FB6F894DEBF0FBECDBF22
:10173000CCA8DDA83EA869AC0E949F088090140543
:1017400090901505A0901605B0901705332009F468
:1017500082C020911105222309F47DC081149104D7
:10176000A104B10409F477C0DC01CB0188199909FF
:10177000AA09BB090196A11DB11D883C9105A105CF
:10178000B10508F068C080911305882309F453C09F
:10179000D6016D917C91CE0101960E94E608CE01A2
:1017A00001960E94280EB8EC8B0E911CA11CB11C56
:1017B00019C089819A81DC01ED91FC910480F58149
:1017C000E02D0995892B71F089819A81DC01ED91D9
:1017D000FC910680F781E02D0995BC01CE010196B0
:1017E0000E94ED090E949F08681579058A059B05EE
:1017F00000F38D858111DDCF0E94300E2CC0F601E3
:1018000080819181DC01ED91FC910480F581E02DD6
:101810000995892BA9F0F60180819181DC01ED9178
:10182000FC910680F781E02D0995BC018CE994E0DC
:101830000E94ED0905C0B8EC8B0E911CA11CB11CD7
:101840000E949F08681579058A059B05C0F2F6017C
:1018500084858111D4CF81E0809311054E01FAE394
:101860008F0E911CD6018D919C91DC01ED91FC9124
:101870000190F081E02D6FEF0995F6018081918153
:10188000DC01ED91FC910190F081E02D68E009957B
:10189000F60180819181DC01ED91FC910190F08154
:1018A000E02D632D0995F60180819181DC01ED9198
:1018B000FC910190F081E02D6FA90995F6018081DE
:1018C0009181DC01ED91FC910190F081E02D68ADFA
:1018D0000995F60180819181DC01ED91FC910190E7
:1018E000F081E02D662D0995F60180819181DC0162
:1018F000ED91FC91662D60950190F081E02D0995A8
:10190000712C161417040CF057C0A12CB12C412CCB
:10191000512CF401E080F180B2E08B0E911CF601B5
:1019200080819181DC01ED91FC910190F081E02DAD
:10193000D7016C910995F60180819181DC01ED91CF
:10194000FC91D7016C9160950190F081E02D099593
:10195000F70180818823D9F0042D152DD6018D91B2
:101960009C91FC0120813181F701A181B281A00FFE
:10197000B11FF901208131816C91F90109950F5F47
:101980001F4FD7018C9190E0081719073CF3E11421
:10199000F10459F0F7018381882321F0818192813C
:1019A0000E946316C7010E949012FFEFAF1ABF0A90
:1019B000A614B70409F0ADCFD6018D919C91DC013E
:1019C000ED91FC910190F081E02D60E009953320CC
:1019D00079F00E949F08DC01CB010196A11DB11D89
:1019E0008093140590931505A0931605B0931705E1
:1019F000A0960FB6F894DEBF0FBECDBFDF91CF919A
:101A00001F910F91FF90EF90DF90CF90BF90AF901C
:101A10009F908F907F906F905F904F903F90089530
:101A2000CF93DF93C82FD92F40E052EC61E070E0F4
:101A30000E94FC081F9282E08F931F921F92DF93F7
:101A4000CF930E947F0B81E0809319058091BE04A3
:101A50000F900F900F900F900F900F908823B1F080
:101A6000C0E0D0E0CE01880F991FE091BC04F09156
:101A7000BD04E80FF91F808191810E94690F2196B2
:101A80008091BE0490E0C817D90764F38091BC042C
:101A90009091BD040E946316DF91CF9108950F933A
:101AA0001F93CF93DF93EC0116C088819981DC01ED
:101AB000ED91FC910680F781E02D09958C01BC0128
:101AC0007727CE010E94ED098B85882321F0EE8DCA
:101AD000FF8D802F099588819981DC01ED91FC9122
:101AE0000480F581E02D0995892BF9F6DF91CF91DE
:101AF0001F910F91089580911305882321F09091F3
:101B0000120581E089270895CF93DF93C82FD92F3D
:101B10000E947B0D811112C081E0809313051F92FA
:101B200083E08F931F921F92DF93CF930E947F0BCE
:101B30000F900F900F900F900F900F90DF91CF911B
:101B40000895CF93DF93C82FD92F0E947B0D882350
:101B500089F0109213051F9284E08F931F921F92B9
:101B6000DF93CF930E947F0B0F900F900F900F90F9
:101B70000F900F90DF91CF9108958CE994E00E942F
:101B80004F0D089588E290E00E94CE159093BD0419
:101B90008093BC0466EF73E08CE994E00E94E60851
:101BA00008950E947B0F0895CF92DF92EF92FF92EB
:101BB0000F931F93CF93DF93CDB7DEB77C010DB7A3
:101BC0001EB7FB0101900020E9F79F01261B370B90
:101BD0002E5F3F4F8DB79EB7821B930B0FB6F894C5
:101BE0009EBF0FBE8DBFEDB7FEB731966F01EDB74B
:101BF000FEB71182C6010E941A18F601019000205A
:101C0000E9F731978DE09AE0A0E080839183A28389
:101C1000B601C7010E94800F0FB6F8941EBF0FBE19
:101C20000DBFDF91CF911F910F91FF90EF90DF904B
:101C3000CF900895089528ED31E0FC013183208391
:101C4000638312820E9402090895FC018381089532
:101C500090931C0580931B0581E080931A050895DD
:101C600010921C0510921B0510921A050895809180
:101C70001A05882329F080911B0590911C05089571
:101C80008CE994E008951F93CF93DF93EC011B81BF
:101C90000E94370E0E941209181323C0CE010E9421
:101CA000370E0E9415098F3FA9F48A818823C9F055
:101CB0008CE994E00E947B0D811113C08CE994E0C3
:101CC0000E94840DEC81FD8109958CE994E00E94CD
:101CD000A10D07C0E881F9810280F381E02DCE01DA
:101CE0000995DF91CF911F9108956F927F928F9206
:101CF0009F92AF92BF92CF92DF92EF92FF920F939B
:101D00001F93CF93DF937C01782E6F2C0E94370EA8
:101D10000E941509C82FC7010E94370E60E00E947B
:101D20001809C13009F046C0C82ED12C1C141D045E
:101D30000CF040C0812C912CE701C15BDF4F870183
:101D4000075B1F4F57018DE4A80EB11CA9E0EA0EF6
:101D5000F11C872D962D0E94370E60E00E9421090C
:101D6000880D991DFC01208188819981803491051D
:101D7000D9F0D801ED91FC911197CF010196119600
:101D80009C938E932083288139812F5F3F4F398325
:101D900028832D913C911197F5018081918128171D
:101DA000390711F4ED92FC92FFEF8F1A9F0A8C1401
:101DB0009D0479F6DF91CF911F910F91FF90EF90E5
:101DC000DF90CF90BF90AF909F908F907F906F905B
:101DD0000895CF93DF93EC0122E041E066E206969E
:101DE0000E94D10D66E2CE010E941B0E80EE91E0B2
:101DF00099838883CE010996FE01E75BFF4F9183AB
:101E00008083DE01A55BBF4F11969C938E93129643
:101E1000ED93FC93C15BDF4F19821882DF91CF9164
:101E20000895CF92DF92EF92FF920F931F93CF937B
:101E3000DF93FB0101900020E9F73197EF01C61B0A
:101E4000D70BF1F18B017C0184E090E00E948D12B0
:101E50006C01DC0113961C92FE01CF3FD10519F0F5
:101E600014F0EFEFF0E0D601EC9312961C930E9372
:101E7000119784E090E00E948D12FC01138282E0B1
:101E8000808397012D5F3F4F32832183DF92CF9272
:101E9000FF93EF938F93C1E0CF931F9289E28F93CB
:101EA0008CE994E09F938F930E947F0BF701C0838E
:101EB0008DB79EB70A960FB6F8949EBF0FBE8DBF22
:101EC000DF91CF911F910F91FF90EF90DF90CF9016
:101ED0000895CF93DF93FC012081211109C0EC010B
:101EE000618172810E94110F89819A810E9463161B
:101EF000DF91CF910895FC0162832083418308958F
:101F0000EF92FF920F931F93CF93DF93FB0101900A
:101F10000020E9F73197EF01C61BD70B71F18B0158
:101F20007C0184E090E00E948D12DC0113961C92EB
:101F30001397FE01CF3FD10519F014F0EFEFF0E059
:101F4000EC9312961C930E931197BF93AF9381E07D
:101F50008F93F70180818F931F9282818F938CE9F9
:101F600094E09F938F930E947F0B8DB79EB7089646
:101F70000FB6F8949EBF0FBE8DBFDF91CF911F911A
:101F80000F91FF90EF90089520915F0530916005CB
:101F900028173907F9F490911D0580911E059817AF
:101FA000E1F0E0911D05F0E0E15EFA4F80812091C3
:101FB0001D0530E02F5F3F4F2F733078332334F40B
:101FC00021503109206C3F6F2F5F3F4F20931D053B
:101FD00090E008958FEF9FEF08958FEF9FEF0895A2
:101FE00020915F053091600528173907B1F42091E1
:101FF0001E0580911D0530E0205C3F4F281B3109F4
:102000002F733078332334F421503109206C3F6F23
:102010002F5F3F4F822F932F089580E090E0089527
:102020001F93CF93DF93EC014C8D5D8D41155105CE
:1020300029F481E090E09B838A8339C0A989BA8919
:102040003889832F80951FB79E8D91FB772770F974
:1020500091FD6095F894772321F09C91932B9C93AC
:1020600003C09C9198239C93FA013197F1F798E073
:1020700060FF04C02C91232B2C9303C02C912823A8
:102080002C93FA013197F1F76695915089F77723F0
:1020900021F09C9189238C9303C08C91382B3C9325
:1020A0001FBF8C8D9D8D0197F1F741E050E0CA0173
:1020B000DF91CF911F91089520915F0530916005C8
:1020C0002817390739F48FB7F89410921E0510922B
:1020D0001D058FBF089520915F0530916005281779
:1020E000390771F490911D0580911E05981759F0DC
:1020F000E0911D05F0E0E15EFA4F808190E00895E7
:102100008FEF9FEF08958FEF9FEF0895E0915F05A8
:10211000F0916005E817F90769F4A389B4899C91E7
:102120008589809589238C931092600510925F05B4
:1021300081E0089580E00895CF93DF93EC018A8DCC
:102140009B8D892BF1F080915F05909160058C1734
:102150009D07C9F0009711F00E9486108E8D8E7F2A
:102160008E8F10921E0510921D05D0936005C093AE
:102170005F05EB89FC8990818D89892B808381E0C3
:1021800003C080E001C080E0DF91CF9108951F92ED
:102190000F920FB60F9211242F933F934F935F939B
:1021A0006F937F938F939F93AF93BF93CF93DF935F
:1021B000EF93FF93A0915F05B0916005109709F42C
:1021C00081C05E968C915E9781FF0DC01E96ED9149
:1021D000FC911F9790811D968C911D97982381E00B
:1021E00071F480E00CC01E96ED91FC911F979081D8
:1021F0001D968C911D97982381E009F080E088233B
:1022000009F460C05396ED91FC91549790815596D6
:102210008C91559780958923808356968D919C91BA
:1022200057970197F1F758966D917C9159971E96A3
:10223000CD91DC911F971D965C911D9738E040E091
:10224000FB013197F1F7842F90E095958795482F02
:102250002881252309F04068315091F75E968C91D2
:102260005E9781FD409580911E0590E001968F73E9
:102270009078992324F40197806C9F6F01962091A8
:102280001D05281749F0E0911E05F0E0E15EFA4FC8
:10229000408380931E0507C05E968C915E97816097
:1022A0005E968C935E975A968D919C915B97019761
:1022B000F1F75396ED91FC915497908155968C913E
:1022C000892B8083FF91EF91DF91CF91BF91AF91E7
:1022D0009F918F917F916F915F914F913F912F913E
:1022E0000F900FBE0F901F90189528EE31E0FC0163
:1022F000318320830E94861008951F93CF93DF932C
:10230000EC01162F6E8D6695617081E06827812F34
:102310000E94011361E0812F0E94C212612F70E0C0
:10232000FB01E458FF4FE491E88BFB01E057FF4FBE
:10233000E491F0E0EE0FFF1FE255FF4F859194917D
:102340009A8B898BDF91CF911F9108951F93CF9323
:10235000DF93EC01162F60E0812F0E94C2128E8D58
:1023600081FD04C061E0812F0E9401131C87612F51
:1023700070E0FB01E458FF4FE491ED87FB01E0576B
:10238000FF4FE491F0E0EE0FFF1FEC55FF4F8591FA
:1023900094919F878E87DF91CF911F9108951F930E
:1023A000CF93DF93EC01162F1B821A8288EE93E005
:1023B000A0E0B0E08C839D83AE83BF8388EE91E084
:1023C000998388831F8A1E8A198E188E1B8E1A8EF7
:1023D0001D8E1C8E8E8D8E7F20FB81F98E8F642F3B
:1023E000CE010E947D11612FCE010E94A611DF91C6
:1023F000CF911F910895CF93DF93EC019A01AB0128
:102400001B8E1A8E198E188E1F8A1E8A60E079E044
:102410008DE390E00E945413F9012430310518F047
:10242000C901039702C081E090E09D8F8C8F8C855D
:10243000863108F041C0B901769567956431710520
:1024400018F06351710902C061E070E07F8B6E8B00
:10245000369720F0B9016550710902C061E070E063
:10246000798F688FB901660F771F260F371F369552
:102470002795369527952D30310510F12C503109CF
:1024800021C021E08E3008F420E081E001C0880FF7
:102490002A95EAF7982B909368009C859830D0F0A5
:1024A0009E3010F1963158F120E030E02AC08D8B3B
:1024B0008C8D9D8D0197F1F7CE010E949C102AC052
:1024C00021E030E03B8F2A8F909168008830C8F679
:1024D00084E0E0CF2DE630E03C8B2B8B81E001C027
:1024E000880F9A95EAF7E3CF2BE630E03C8B2B8BF5
:1024F000985081E001C0880F9A95EAF7D8CF2CE672
:1025000030E03C8B2B8B9E5081E001C0880F9A9568
:10251000EAF7CDCFDF91CF9108950E94CE150895AF
:102520000E9463160895833069F028F48130B1F079
:102530008230C1F008958730C9F08830E9F08430E6
:1025400001F506C0E0E8F0E080818F778083089590
:10255000E0E8F0E080818F7D8083089584B58F77F7
:1025600084BD089584B58F7D84BD0895E0EBF0E0CF
:1025700080818F7780830895E0EBF0E080818F7D0C
:1025800080830895CF93DF9390E0FC01E458FF4FE0
:102590002491FC01E057FF4F8491882379F190E06A
:1025A000880F991FFC01E854FF4FA591B491FC01DD
:1025B000E255FF4FC591D49161110CC09FB7F894BB
:1025C0008C91E22FE0958E238C932881E223E8837F
:1025D0009FBF14C0623061F49FB7F8943C91822F82
:1025E000809583238C93E881E22BE8839FBF06C00C
:1025F0008FB7F894EC91E22BEC938FBFDF91CF91E2
:1026000008951F93CF93DF93282F30E0F901E85905
:10261000FF4F8491F901E458FF4F1491F901E057FD
:10262000FF4FC491CC23D1F0D62F81110E94931279
:10263000EC2FF0E0EE0FFF1FE255FF4FA591B49194
:102640008FB7F894D11106C09C91E12FE095E92352
:10265000EC9303C0EC91E12BEC938FBFDF91CF9112
:102660001F910895A1E21A2EAA1BBB1BFD010DC0EC
:10267000AA1FBB1FEE1FFF1FA217B307E407F50732
:1026800020F0A21BB30BE40BF50B661F771F881F0E
:10269000991F1A9469F760957095809590959B01A4
:1026A000AC01BD01CF010895052E97FB1EF40094E7
:1026B0000E946B1357FD07D00E94321307FC03D012
:1026C0004EF40C946B1350954095309521953F4FE7
:1026D0004F4F5F4F089590958095709561957F4F0E
:1026E0008F4F9F4F0895EE0FFF1F0590F491E02D3F
:1026F00009945058BB27AA270E9491130C94BA142E
:102700000E94AC1438F00E94B31420F039F49F3FBB
:1027100019F426F40C94A9140EF4E095E7FB0C943C
:102720009514E92F0E94CB1458F3BA176207730768
:102730008407950720F079F4A6F50C94ED140EF4B7
:10274000E0950B2EBA2FA02D0B01B90190010C01C1
:10275000CA01A0011124FF27591B99F0593F50F4D9
:10276000503E68F11A16F040A22F232F342F442731
:10277000585FF3CF469537952795A795F040539529
:10278000C9F77EF41F16BA0B620B730B840BBAF0F9
:102790009150A1F0FF0FBB1F661F771F881FC2F764
:1027A0000EC0BA0F621F731F841F48F48795779578
:1027B0006795B795F7959E3F08F0B0CF9395880F32
:1027C00008F09927EE0F9795879508950E94FA13C0
:1027D0000C94BA140E94B31458F00E94AC1440F048
:1027E00029F45F3F29F00C94951451110C94EE14C8
:1027F0000C94A9140E94CB1468F39923B1F35523C8
:1028000091F3951B550BBB27AA2762177307840703
:1028100038F09F5F5F4F220F331F441FAA1FA9F399
:1028200035D00E2E3AF0E0E832D091505040E69587
:10283000001CCAF72BD0FE2F29D0660F771F881FE8
:10284000BB1F261737074807AB07B0E809F0BB0BDB
:10285000802DBF01FF2793585F4F3AF09E3F5105EF
:1028600078F00C9495140C94EE145F3FE4F3983ECA
:10287000D4F3869577956795B795F7959F5FC9F7D8
:10288000880F911D9695879597F90895E1E0660F59
:10289000771F881FBB1F621773078407BA0720F0D2
:1028A000621B730B840BBA0BEE1F88F7E09508953B
:1028B000E89409C097FB3EF49095809570956195DA
:1028C0007F4F8F4F9F4F9923A9F0F92F96E9BB2790
:1028D0009395F695879577956795B795F111F8CF0C
:1028E000FAF4BB0F11F460FF1BC06F5F7F4F8F4F77
:1028F0009F4F16C0882311F096E911C0772321F06D
:102900009EE8872F762F05C0662371F096E8862F04
:1029100070E060E02AF09A95660F771F881FDAF75B
:10292000880F9695879597F9089597F99F6780E89E
:1029300070E060E008959F3F31F0915020F487955A
:1029400077956795B795880F911D9695879597F917
:1029500008959FEF80EC089500240A941616170638
:1029600018060906089500240A9412161306140680
:1029700005060895092E0394000C11F4882352F0E3
:10298000BB0F40F4BF2B11F460FF04C06F5F7F4F9B
:102990008F4F9F4F089557FD9058440F551F59F082
:1029A0005F3F71F04795880F97FB991F61F09F3F3C
:1029B00079F087950895121613061406551FF2CF65
:1029C0004695F1DF08C0161617061806991FF1CFB5
:1029D00086957105610508940895E894BB276627DC
:1029E0007727CB0197F908950E9407150C94BA1424
:1029F0000E94AC1438F00E94B31420F0952311F01B
:102A00000C9495140C94A91411240C94EE140E94A7
:102A1000CB1470F3959FC1F3950F50E0551F629F43
:102A2000F001729FBB27F00DB11D639FAA27F00D27
:102A3000B11DAA1F649F6627B00DA11D661F829F4E
:102A40002227B00DA11D621F739FB00DA11D621F33
:102A5000839FA00D611D221F749F3327A00D611D50
:102A6000231F849F600D211D822F762F6A2F112432
:102A70009F5750409AF0F1F088234AF0EE0FFF1F65
:102A8000BB1F661F771F881F91505040A9F79E3FBC
:102A9000510580F00C9495140C94EE145F3FE4F310
:102AA000983ED4F3869577956795B795F795E79512
:102AB0009F5FC1F7FE2B880F911D9695879597F91B
:102AC000089519F416F40C94A9140C949B140E9404
:102AD000D314B8F39923C9F3B6F39F57550B87FF67
:102AE0000E94A7150024A0E640EA90018058569560
:102AF000979528F4805C660F771F881F20F02617B3
:102B00003707480730F4621B730B840B20293129E7
:102B10004A2BA69517940794202531254A2758F764
:102B2000660F771F881F20F026173707480730F4F5
:102B3000620B730B840B200D311D411DA09581F795
:102B4000B901842F9158880F9695879508959150D3
:102B50005040660F771F881FD2F70895EF920F93AA
:102B60001F93CF93DF93E80147FD02C034E001C01B
:102B700034E1E42F440FFF0BF7FF03C0F195E1951B
:102B8000F109E32E022F2E2FAE010E94411ACE0131
:102B9000DF91CF911F910F91EF900895CF93DF9325
:102BA0008230910510F482E090E0E0916305F091AD
:102BB000640520E030E0C0E0D0E0309711F14081C2
:102BC000518148175907C0F04817590761F48281AD
:102BD0009381209719F09B838A832BC0909364057F
:102BE0008093630526C02115310519F0421753075C
:102BF00018F49A01BE01DF01EF010280F381E02D9C
:102C0000DCCF2115310509F1281B390B24303105A2
:102C100090F412968D919C9113976115710521F096
:102C2000FB019383828304C09093640580936305C2
:102C3000FD01329644C0FD01E20FF31F8193919391
:102C4000225031092D933C933AC020916105309177
:102C50006205232B41F4209102013091030130934E
:102C60006205209361052091000130910101211539
:102C7000310541F42DB73EB7409104015091050153
:102C8000241B350BE0916105F0916205E217F30713
:102C9000A0F42E1B3F0B2817390778F0AC014E5FCC
:102CA0005F4F2417350748F04E0F5F1F50936205A2
:102CB000409361058193919302C0E0E0F0E0CF0181
:102CC000DF91CF9108950F931F93CF93DF930097D8
:102CD00009F48CC0FC0132971382128200916305C3
:102CE000109164050115110581F420813181820F55
:102CF000931F20916105309162052817390779F5F6
:102D0000F0936205E093610571C0D80140E050E0A6
:102D1000AE17BF0750F412962D913C911397AD0159
:102D20002115310509F1D901F3CF9D01DA01338372
:102D3000228360817181860F971F8217930769F440
:102D4000EC0128813981260F371F2E5F3F4F3183D9
:102D500020838A819B8193838283452B29F4F0937E
:102D60006405E093630542C01396FC93EE931297BB
:102D7000ED01499159919E01240F351FE217F30788
:102D800071F480819181840F951F029611969C9316
:102D90008E938281938113969C938E931297E0E099
:102DA000F0E0D80112968D919C911397009719F03D
:102DB000F8018C01F6CF8D919C9198012E5F3F4FC9
:102DC000820F931F20916105309162052817390702
:102DD00069F4309729F4109264051092630502C0DB
:102DE000138212821093620500936105DF91CF91E7
:102DF0001F910F910895A0E0B0E0E1E0F7E10C949D
:102E0000711D5C016B017A016115710519F0FB01FF
:102E100091838083E114F10429F0C701029783971D
:102E200008F0F1C0E5012196F5011081812F90E0B5
:102E30000E940C18892B11F05E01F4CF1D3229F489
:102E40002196F501118101E007C01B3221F4E50153
:102E50002296F501118100E0E114F10459F1F0E14D
:102E6000EF16F10461F41033E1F488818F7D883529
:102E700069F519812296026070E1E72EF12C88E055
:102E8000E816F10439F12CF4F2E0EF16F104C9F17F
:102E90002AC08AE0E816F10479F0E0E1EE16F104C8
:102EA00011F550E1E52EF12C812C912CA12C68E03C
:102EB000B62E2CC01033C9F23AE0E32EF12C4CECC4
:102EC000842E982CA82C4CE0B42E20C010E3E114E2
:102ED000F104A9F698E0E92EF12C812C912CA12C7B
:102EE00020E1B22E13C060E070E080E090E897012E
:102EF0000F2C000C440B550B0E94321349015A0150
:102F000005C0812C912CA12C80E4B82E60E020E03B
:102F100030E0A90127010F2C000C660877081E017C
:102F2000E0EDE10FEA3060F08FEB810F8A3110F4B1
:102F3000E9EC05C08FE9810F8A3128F5E9EAE10F54
:102F40008E2F90E08E159F05F4F467FD18C0821651
:102F50009306A406B50690F0C301B2010E94561D67
:102F60009B01AC012E0F311D411D511D213031053A
:102F70004105F0E85F0710F461E001C06FEF2196B2
:102F8000F1011081CCCF802F8170C114D10471F078
:102F9000662329F02197F601D183C08307C001FF82
:102FA00019C02297F601D183C08314C067FF12C0F5
:102FB000811105C02FEF3FEF4FEF5FE704C020E026
:102FC00030E040E050E882E290E090936605809324
:102FD000650516C0882341F05095409530952195A0
:102FE0003F4F4F4F5F4F0CC057FF0AC082E290E047
:102FF00090936605809365052FEF3FEF4FEF5FE7F6
:10300000B901CA0104C060E070E080E090E0CDB793
:10301000DEB7E2E10C948D1D91110C94A71C803257
:1030200019F089508550C8F7089544EF51E00E9487
:1030300025180895FB01DC010D900020E9F7119798
:1030400001900D920020E1F70895FA01A191B0815D
:10305000009719F41097E1F0CD01DC01CD010D903E
:10306000002011F4C00113C0FB012191222319F0AB
:103070002015D9F7F3CFFB012191201519F41E92E9
:10308000119606C02223C1F70D900020A1F7D001B0
:10309000FA01A193B0830895AEE0B0E0E2E5F8E173
:1030A0000C947F1D0D891E8986E08C831A83098309
:1030B0008FEF9FE79E838D83AE01475E5F4F6F89E1
:1030C000788DCE0101960E946F182F813885F80106
:1030D000E20FF31F10822E96E4E00C949B1DACE0EF
:1030E000B0E0E5E7F8E10C94711D7C016B018A0109
:1030F000FC0117821682838181FFBDC1CE0101963A
:103100004C01F7019381F60193FD859193FF819125
:103110006F01882309F4ABC1853239F493FD8591A1
:1031200093FF81916F01853229F4B70190E00E94ED
:10313000C01CE7CF512C312C20E02032A0F48B3280
:1031400069F030F4803259F0833269F420612CC088
:103150008D3239F0803339F4216026C0226024603A
:1031600023C0286021C027FD27C030ED380F3A303A
:1031700078F426FF06C0FAE05F9E300D1124532E2E
:1031800013C08AE0389E300D1124332E20620CC00B
:103190008E3221F426FD6BC1206406C08C3611F4FA
:1031A000206802C0883641F4F60193FD859193FFB3
:1031B00081916F018111C1CF982F9F7D95549330DC
:1031C00028F40C5F1F4FFFE3F9830DC0833631F005
:1031D000833771F0833509F05BC022C0F80180812C
:1031E00089830E5F1F4F44244394512C540115C012
:1031F0003801F2E06F0E711CF801A080B18026FF4B
:1032000003C0652D70E002C06FEF7FEFC5012C8712
:103210000E94B51C2C0183012C852F77222E17C00C
:103220003801F2E06F0E711CF801A080B18026FF1A
:1032300003C0652D70E002C06FEF7FEFC5012C87E2
:103240000E94AA1C2C012C852068222E830123FCBD
:103250001BC0832D90E048165906B0F4B70180E2F8
:1032600090E00E94C01C3A94F4CFF50127FC8591B0
:1032700027FE81915F01B70190E00E94C01C3110D0
:103280003A94F1E04F1A51084114510471F7E5C026
:10329000843611F0893639F5F80127FF07C06081BF
:1032A0007181828193810C5F1F4F08C060817181A1
:1032B000072E000C880B990B0E5F1F4F2F76722E76
:1032C00097FF09C090958095709561957F4F8F4FBE
:1032D0009F4F2068722E2AE030E0A4010E94F81C63
:1032E000A82EA81844C0853729F42F7EB22E2AE0D4
:1032F00030E025C0F22FF97FBF2E8F36C1F018F4D1
:10330000883579F0B4C0803719F0883721F0AFC024
:103310002F2F2061B22EB4FE0DC08B2D8460B82EED
:1033200009C024FF0AC09F2F9660B92E06C028E06E
:1033300030E005C020E130E002C020E132E0F801D9
:10334000B7FE07C060817181828193810C5F1F4F3E
:1033500006C06081718180E090E00E5F1F4FA40184
:103360000E94F81CA82EA818FB2DFF777F2E76FE52
:103370000BC0372D3E7FA51450F474FE0AC072FCBA
:1033800008C0372D3E7E05C0BA2C372D03C0BA2C9D
:1033900001C0B52C34FF0DC0FE01EA0DF11D808186
:1033A000803311F4397E09C032FF06C0B394B39460
:1033B00004C0832F867809F0B39433FD13C030FF27
:1033C00006C05A2CB31418F4530C5B18B32CB31466
:1033D00068F4B70180E290E03C870E94C01CB3947F
:1033E0003C85F5CFB31410F43B1801C0312C34FFE9
:1033F00012C0B70180E390E03C870E94C01C3C856E
:1034000032FF17C031FD03C088E790E002C088E5B5
:1034100090E0B7010CC0832F867859F031FF02C0CD
:103420008BE201C080E237FD8DE2B70190E00E949F
:10343000C01CA51438F4B70180E390E00E94C01CC2
:103440005A94F7CFAA94F401EA0DF11D8081B701D7
:1034500090E00E94C01CA110F5CF332009F451CE9A
:10346000B70180E290E00E94C01C3A94F6CFF701C9
:103470008681978102C08FEF9FEF2C96E2E10C943A
:103480008D1D4F925F926F927F929F92AF92BF92EB
:10349000CF92DF92EF92FF920F931F93CF93DF9320
:1034A000CDB7DEB729970FB6F894DEBF0FBECDBFFC
:1034B0006A01122FB02E2BE3201720F0FF24F39483
:1034C000F00E02C0BCE3FB2E0F2D27E0AE014F5FD4
:1034D0005F4F0E94CF1BAC018981982F997091306A
:1034E00031F0E1FC06C0E0FE06C090E205C09DE2BE
:1034F00003C09BE201C090E0EE2DE07183FF3CC071
:10350000911102C083E001C084E0811718F4212FDB
:10351000281B01C020E0E1110BC0F601822F30E230
:10352000882319F031938150FBCFC20ED11C20E0CB
:10353000992329F0D6019C93F60131966F01C601BB
:103540000396E2FE0AC03EE4D6013C9341E41196A4
:103550004C93119712963C9306C03EE6F6013083D9
:1035600041E641833283FC01322F40E2332309F4E8
:1035700042C041933150FACF82FF44C0911102C042
:1035800083E001C084E0811718F4212F281B01C0BB
:1035900020E0E1110BC0F601822F30E2882319F000
:1035A00031938150FBCFC20ED11C20E0992329F02A
:1035B000D6019C93F60131966F01C6010396E2FE97
:1035C0000BC039E4D6013C933EE411963C9311972D
:1035D00036E412963C9307C039E6F60130833EE6A6
:1035E000318336E63283FC01322F40E2332319F077
:1035F00041933150FBCFFC01E20FF11D10828EEFA1
:103600009FEFB7C0F1E0911101C0F0E06F2F70E0C3
:103610001416150624F49A012F5F3F4F02C021E0D3
:1036200030E0260F371FBB2029F06B2D70E06F5F55
:103630007F4F02C060E070E0260F371F612F70E0FF
:10364000261737071CF4121B212F01C020E03E2D46
:10365000387159F4D601322F60E2332319F06D939B
:103660003150FBCFC20ED11C20E0FF2331F0D60138
:103670009C93B6016F5F7F4F6B01E1110BC0F601A8
:10368000922F30E3992319F031939150FBCFC20E62
:10369000D11C20E09F2D940F3A81782F7071A72EB6
:1036A00084FF03C0313309F49150191624F4993082
:1036B00018F098E001C091E0E42F852F57FF02C079
:1036C000E0E080E06E2F782FE0E0F0E0AEE29A2EAE
:1036D0003A01691A71082A01461A570A0B2D10E09F
:1036E0001195019511096F3F8FEF780729F4D601E5
:1036F0009C92C60101966C014617570784F0661626
:1037000077066CF47F01E40CF51CA1E0B0E0AC0F8F
:10371000BD1FEA0EFB1ED7011196BC9002C090E3BC
:10372000B92E615071093196C60101967C0160176E
:10373000710724F0D601BC926C01D5CF64177507D0
:1037400041F4363320F4353321F4A11002C081E373
:10375000B82EF601B082F701822F90E2882319F08B
:1037600091938150FBCFF701E20FF11D108280E0B1
:1037700090E029960FB6F894DEBF0FBECDBFDF9163
:10378000CF911F910F91FF90EF90DF90CF90BF905E
:10379000AF909F907F906F905F904F9008952830EA
:1037A00008F027E03327DA01990F311D87FD91607A
:1037B00000966105710539F432602E5F3D9330E368
:1037C0002A95E1F708959F3F30F080387105610533
:1037D00009F03C5F3C5F3D93913008F08068911D9B
:1037E000DF93CF931F930F93FF92EF92192F987F40
:1037F0009695E92F96959695E90FFF27E45EFE4F83
:1038000099273327EE24FF24A701E70105900894A8
:10381000079428F4360FE71EF81E491F511D660F46
:10382000771F881F991F0694A1F70590079428F425
:10383000E70EF81E491F561FC11D770F881F991FDD
:10384000661F0694A1F70590079428F4F80E491F07
:10385000561FC71FD11D880F991F661F771F06941B
:10386000A1F70590079420F4490F561FC71FD81FD2
:10387000990F661F771F881F0694A9F784911095EA
:10388000177041F0D695C79557954795F794E794EB
:103890001A95C1F7E2ECF0E0689415901591359116
:1038A0006591959105907FE27395E118F10A430BBC
:1038B000560BC90BD009C0F7E10CF11E431F561F70
:1038C000C91FD01D7EF4703311F48A95E6CFE894B9
:1038D000015030F0080F0AF40027021708F4202FD7
:1038E0002395022F7A3328F079E37D932A95E9F71F
:1038F00010C07D932A9589F606949795679537951C
:1039000017951794E118F10A430B560BC90BD00910
:1039100098F023957E9173957A3308F070E37C9349
:103920002013B8F77E9170617D9330F0839571E339
:103930007D9370E32A95E1F71124EF90FF900F91AA
:103940001F91CF91DF91992787FD90950895992731
:1039500088270895FC010590615070400110D8F748
:10396000809590958E0F9F1F0895FC0161507040C7
:1039700001900110D8F7809590958E0F9F1F0895A4
:103980000F931F93CF93DF93FB01238121FD03C08E
:103990008FEF9FEF28C022FF16C0468157812481F8
:1039A00035814217530744F4A081B1819D012F5FF7
:1039B0003F4F318320838C93268137812F5F3F4F88
:1039C0003783268310C0EB01092F182F0084F1855F
:1039D000E02D0995892BE1F68E819F8101969F83C9
:1039E0008E83812F902FDF91CF911F910F9108959A
:1039F000FA01AA27283051F1203181F1E8946F9320
:103A00006E7F6E5F7F4F8F4F9F4FAF4FB1E03ED0C5
:103A1000B4E03CD0670F781F891F9A1FA11D680F63
:103A2000791F8A1F911DA11D6A0F711D811D911D96
:103A3000A11D20D009F468943F912AE0269F11240B
:103A40003019305D3193DEF6CF010895462F47706F
:103A5000405D4193B3E00FD0C9F7F6CF462F4F70CA
:103A6000405D4A3318F0495D31FD4052419302D028
:103A7000A9F7EACFB4E0A6959795879577956795CE
:103A8000BA95C9F700976105710508959B01AC01CE
:103A90000A2E06945795479537952795BA95C9F7F5
:103AA000620F731F841F951FA01D0895DB018F9364
:103AB0009F930E94661DBF91AF91A29F800D911DA3
:103AC000A39F900DB29F900D112408950E94A81DF0
:103AD000A59F900DB49F900DA49F800D911D112462
:103AE00008952F923F924F925F926F927F928F92A2
:103AF0009F92AF92BF92CF92DF92EF92FF920F937D
:103B00001F93CF93DF93CDB7DEB7CA1BDB0B0FB686
:103B1000F894DEBF0FBECDBF09942A883988488843
:103B20005F846E847D848C849B84AA84B984C884D9
:103B3000DF80EE80FD800C811B81AA81B981CE0FD0
:103B4000D11D0FB6F894DEBF0FBECDBFED010895B5
:103B5000A29FB001B39FC001A39F700D811D1124CE
:103B6000911DB29F700D811D1124911D089510E0CB
:103B7000C1EED0E004C0FE010E9473132196C23E44
:083B8000D107C9F7F894FFCF4B
:103B880000006705200024504D544B3232302C3150
:103B98003030302A31460024504D544B3330302CCD
:103BA800313030302C302C302C302C302A3143003E
:103BB80024504D544B3331342C302C312C302C3094
:103BC8002C302C302C302C302C302C302C302C300D
:103BD8002C302C302C302C302C302C302C302A32FD
:103BE80039004C613A257325734C6F3A2573257358
:103BF800434F473A25730000000000A706F4071F4B
:103C08000639062B0685060D0A006E616E00696E80
:103C180066006F7666002E0046332000463120008D
:103C28004632200043312000433420004335200031
:103C38004D3120004D32200043362000433720000C
:103C48004D33200043382000433920004332200000
:103C58004333200000000000430E1A0E000000004D
:103C6800430E750E000000001010F407F00FC40F8B
:043C78006B105C1061
:00000001FF
